:1000000000800020C90A0000090B00000B0B000053
:1000100000000000000000000000000000000000E0
:100020000000000000000000000000000D0B0000B8
:1000300000000000000000000F0B0000110B00008A
:1000400071080000130B0000E9080000130B00000A
:10005000130B000000000000130B0000130B000046
:10006000130B0000130B0000130B0000130B000018
:10007000130B0000130B0000130B0000130B000008
:10008000130B000045020000130B0000130B0000CF
:1000900021030000130B0000130B0000130B0000E2
:1000A000130B0000130B0000000000000000000014
:1000B0000000000000000000000000000000000040
:1000C00010B5064C2378002B07D1054B002B02D02E
:1000D000044800E000BF0123237010BD6C00002025
:1000E00000000000180C0000044B10B5002B03D0DA
:1000F0000349044800E000BF10BDC04600000000F6
:1001000070000020180C0000164B002B00D1144B7F
:100110009D46402292029A1A924600218B460F4633
:100120001348144A121A00F065F80F4B002B00D048
:1001300098470E4B002B00D0984700200021040068
:100140000D000D48002802D00C4800E000BF00F070
:100150002DF82000290000F093FC00F011F8C046B3
:1001600000000800008000200000000000000000E7
:100170006C000020DC0000200000000000000000F7
:10018000084B10B50400002B02D0002100E000BF96
:10019000054B1868836A002B00D09847200000F0B8
:1001A00031F8C04600000000100C000070B50026B9
:1001B0000C4D0D4C641BA410A64209D1002600F082
:1001C0001BFD0A4D0A4C641BA410A64205D170BD4C
:1001D000B300EB5898470136EEE7B300EB58984769
:1001E0000136F2E764000020640000206400002073
:1001F0006800002003001218934200D17047197064
:100200000133F9E7FEE7C046002300B585B001AA37
:100210009060002103481380536000F005F805B09A
:1002200000BDC04601400000BFF34F8F034B044A9E
:10023000DA60BFF34F8FC046FDE7C04600ED00E037
:100240000400FA05A021F0B50023C6462B4A490058
:1002500000B55350043153500431535004315350BE
:100260004C39535004315350254B1B68002B35D06B
:10027000244900265458244A244F1268A41A002204
:100280002402240A904602E0002D18D02B001A68A0
:10029000A24214D8A41AB6181A7CDD69002AF3D039
:1002A000424699691A745A693B68002B1FD01000A6
:1002B00098470028E8D0FFF7A7FF002DE6D11449A2
:1002C000144A0B7812789A420BD0134A9B009E5026
:1002D00080218023114A5B004903D15004BC904621
:1002E000F0BD0132D3B2022B04D00B70EDE7080051
:1002F0009047C9E700230B70E7E7C04600100140B4
:10030000A800002004050000A400002088000020B0
:10031000A1000020A00000209800002000E100E0E3
:10032000F0B55746DE464E464546E0B5C74BC84A8F
:100330001B68C8499A460978137889B0994200D158
:1003400012E10133DBB2022B00D1F9E01370C24A93
:100350009B009A5853469B181B021B0A9946494614
:10036000BA4B196001239C46BC4BBC491E78BC4B60
:1003700037001B680024059349780091B749496804
:100380000191B64989780291B64909780391002113
:10039000884606910491B449079100998F421ED076
:1003A00001987900C919834601370298FFB2381ABB
:1003B000451EA841C9004042594407400878022818
:1003C00000D19EE00328E8D1002BE6D01C74DB6945
:1003D000002BFBD10121049100998F42E0D10499B7
:1003E000002900D0EBE1069B002B02D04946974B39
:1003F00019604346002B02D09A4B0399197063464B
:10040000002B00D018E10024964B00961B78069331
:100410008E4B1B689946059B9C46002303939A4686
:100420009846924B65469B46002C30D06268A16886
:100430002000E4694B46D31A1B021B0A5B4557D8C0
:100440005B180360424642608260012202744246A9
:10045000C261002D00D19FE02A689A4200D394E047
:10046000009E2900844603E00A689A4200D397E080
:100470000800C9699B1A0029F6D10200604694461B
:10048000009603606346C161D861002CCED152460C
:10049000009EB74200D18DE0019A73009B199446EB
:1004A0000136029AF6B2921B511E8A41DB00634468
:1004B00019785242164001220129EAD15868027C7B
:1004C000002AE6D192469A6800964260D968816017
:1004D0001E69C6605B698361069B002B67D052462C
:1004E0009A464B46D31A1B0242601B0A5B45A7D9AA
:1004F0004B469A1A1202120A8A423AD28B1A0360A7
:10050000A0E74D68002B00D147E79B469D4219D0DC
:10051000180000E00800C169002900D13DE78D42C4
:10052000F8D1834685420ED058462968ED69C561E9
:10053000002D00D131E728688346594429602CE713
:10054000002303E71D000121DB690491002BEBD19F
:1005500001200799886001218846039106910021B6
:10056000894641460491DFE70023D14600229C469C
:10057000FAE6434603604360836001230374434605
:10058000C361002D08D000232A68D31A2B600123F1
:10059000C5610393050047E701230500039343E783
:1005A00000960600D21A60460A60B44669E7012345
:1005B0009A463FE7AC46002A00D0FDE0039B002BA3
:1005C00002D06246264B1A60254B059A1B6893425F
:1005D00002D1049A002A25D0002B00D1B8E0244A89
:1005E0002148244C81584A468A1A12022578120A58
:1005F0001B680332002D62D0934200D21300A8245E
:100600004B4419481B021B0AE400194D035142597F
:100610005B1A521A1202120A1B0203321B0A9A4276
:1006200000D96FE000230F4A137009B03CBC90461C
:100630009946A246AB46F0BD00256446059BB446EC
:1006400000210020A946B8462E002BE0A40000207F
:10065000A0000020A1000020980000208C000020B5
:10066000A80000209400002000100140FEFF7F0041
:1006700004050000950000201D68954200D95BE04C
:100680004946521B4019DD681960DF69002D07D00B
:100690005146DE611E0009180902090A59609D6071
:1006A00021003B00002BE7D1320047466646A446B6
:1006B0001400002900D08DE063460493A4E6802551
:1006C000D1266D02B6008551403E8551C027802657
:1006D000444DB6027F00EE512E6001250560424870
:1006E000424F06682F20C046C046C046C046C0469E
:1006F000C046C046C046BE4200D0C0460138F2D116
:10070000257079E7435939490351374B1A682F232C
:10071000C046C046C046C046C046C046C046C046A9
:100720008A4200D0C046013BF2D1802380212D4A6D
:100730005B008902D15075E7300047466646A44603
:10074000040000294AD1AA1A1A60634604935BE6A2
:10075000802080222349800288508022D2200125D7
:100760002349520280000A5040380A501E4A4D6008
:1007700010682F221D4C1600C046C046C046C04619
:10078000C046C046C046C046A04200D0C046013E5A
:10079000F2D18D6017490B60C046C046C046C046C6
:1007A000C046C046C046C046A04200D0C046013A3E
:1007B000F2D1114A137035E7104B1F70FEE6104955
:1007C0000B6005990593C91A0800411E8841C1B202
:1007D000049108E60A4A059313606DE708490593FA
:1007E0000B60B0E700E100E0600000200024F400AE
:1007F00000100140A4000020950000208C00002083
:10080000A8000020A02210B5074BD205D158074BF5
:10081000185C012383401C00A1208C430B40044939
:10082000C0001450535010BD04050000140C00000B
:100830000C050000A02303220B49DB055A500431AC
:100840005A500A495A5004315A50A1228021D200EC
:10085000890399508021C903995080210904995036
:100860008021490499507047540700005C0700003C
:1008700010B51A4B1A68002A14D0002280211A6081
:10088000C2220123164CC90592008B506370A368E5
:10089000002B07D01A6800205B68A2609847A36805
:1008A000002BF7D10F4B1A68002A15D000221A60CE
:1008B0008022C22302219B00D205D1500123084C83
:1008C000A3702369002B07D01A6801205B6822619E
:1008D00098472369002BF7D110BDC04600010040A6
:1008E000AC00002004010040C12330B5614A9B00E8
:1008F000D35885B09B055ED592235B00D158002963
:1009000059D00021D1508121E533FF338900D150E6
:10091000594B997E002901D101315160022269466B
:100920000A7090215348C9004258425069460392C8
:10093000DA7D68460A72DA68196801920022DA756F
:100940001A765B6898478E214A4A49005358002B13
:1009500012D0494B9C8A987D844257D3002454502E
:10096000002809D06A46107214709A689C7519683C
:1009700001925B6868469847A2233E4A5B00D158C3
:10098000002916D00021D1503B4B997E002901D07F
:1009900001211160DA7D002A0BD000226846012176
:1009A000DA755A7E01700272DA68196801925B6822
:1009B000984705B030BDC1232E4A9B00D3585B0732
:1009C000C1D5842149005358002BBCD02A4BD87D77
:1009D000002827D15050A321C90052585A7E824284
:1009E000B1D11A7E1968002A2AD0DA751A69D86836
:1009F000DA6000226D465C7E1A765A7601320190EA
:100A00002A702C725B68684698479CE7002050501B
:100A1000998A9868405C998A013189B29982174B0A
:100A2000D050A9E700205050A320C000597E125892
:100A3000D86842545A7ED87D0132D2B25A76CDE778
:100A40009A7E002A02D101200A4A5060C2228124E3
:100A500008489200A400845000226C460120DA75F8
:100A60005A7E20702272DA68684601925B68984765
:100A700069E7C04600200040C00000201C050000BF
:100A8000F8B5FFF7D7FE0D4E0D4F0E4D0024200098
:100A9000FFF7B8FE3A682B00C046C046C046C046C5
:100AA000C046C046C046C046B24200D0C046013B28
:100AB000F2D10134042CEAD1E8E7C0460024F40066
:100AC0006000002020A1070003210A4802680A43B1
:100AD0000260094802680A4302600849084A094B53
:100AE0009B1A03DD043BC858D050FBDC00F012F821
:100AF000FFF70AFB2405004054050040240C0000C9
:100B0000000000206C000020FEE7FEE7FEE7FEE7A5
:100B1000FEE7FEE72E4B1B78012B00D070472D4BD4
:100B20001B681B07FAD1F0222B4B1B68134027D1FF
:100B30002A4B1B6813422BD0264B1B681B07EDD199
:100B4000F022254B1B681340402B2DD0F022224B66
:100B50001B681340A02B01D0D02BDFD1F0231F4AFC
:100B600012681A42DAD11E4A1368012B04D01D4BB9
:100B700013601368012BFCD1C0221B4B1A60CDE718
:100B8000102B01D0302BDBD1144B1B681342D7D173
:100B9000164B174A1A608022164B12021A600C4B31
:100BA0001B78012BC8D0B9E70C4B1B681342CDD181
:100BB0008022C1230121DB00D205D150044B1B78D8
:100BC000012BABD1034B1B681B07BFD0A6E7C04668
:100BD000E00F00F0E40F00F0E80F00F0EC0F00F081
:100BE00000EC06407593000014EC0640040500403C
:100BF000DFFF07C0186C0040F8B5C046F8BC08BC61
:100C00009E467047F8B5C046F8BC08BC9E46704783
:0C0C10000000002015161718000000005E
:080C1C00ECF4FF7F0100000071
:100C240000000000000000000000000000000000C0
:100C340000000000000000000000000000000000B0
:100C440000000000000000000000000000000000A0
:100C54000000000000000000000000000000000090
:100C64000000000000000000000000000000000080
:100C74000000000000000000000000000000000070
:0C0C84000024F400E9000000C1000000A2
:0400000300000AC926
:00000001FF
