:020000021000EC
:10B000000080002059D8010099D801009BD8010088
:10B010000000000000000000000000000000000030
:10B020000000000000000000000000009DD80100AA
:10B0300000000000000000009FD80100A1D801001E
:10B040008DBD0100A3D80100FDC60100A3D80100F9
:10B05000A3D80100000000001DC20100A3D8010018
:10B06000A3D80100A3D80100A3D80100A3D80100F0
:10B07000A3D80100A3D80100A3D80100A3D80100E0
:10B08000A3D8010055B40100A3D80100A3D8010042
:10B0900031B50100A3D8010079DD0100A3D801007A
:10B0A000A3D80100A3D801000000000000000000A8
:10B0B0000000000000000000000000000000000090
:10B0C00010B5064C2378002B07D1054B002B02D07E
:10B0D000044800E000BF0123237010BD6020002061
:10B0E0000000000060DE0100044B10B5002B03D00F
:10B0F0000349044800E000BF10BDC0460000000046
:10B100006420002060DE0100164B002B00D1144BA0
:10B110009D46402292029A1A924600218B460F4683
:10B120001348144A121A00F065F80F4B002B00D098
:10B1300098470E4B002B00D09847002000210400B8
:10B140000D000D48002802D00C4800E000BF00F0C0
:10B150002DF82000290001F075FC00F011F8C04620
:10B160000000080000800020000000000000000037
:10B170006020002098220020000000000000000055
:10B18000084B10B50400002B02D0002100E000BFE6
:10B19000054B1868836A002B00D09847200000F008
:10B1A00031F8C046000000002CDE010070B500261A
:10B1B0000C4D0D4C641BA410A64209D1002602F0D0
:10B1C00029FE0A4D0A4C641BA410A64205D170BD8D
:10B1D000B300EB5898470136EEE7B300EB589847B9
:10B1E0000136F2E758200020582000205820002087
:10B1F0005C20002003001218934200D170471970A0
:10B200000133F9E7FEE7C046F0B54F46D64646465D
:10B21000C0B5214B1978994600292AD01F4B00242C
:10B2200098461F4B1F4F01269A4603E00134E4B2B3
:10B230008C421ED243461B6832009C46E5006544A2
:10B2400028783B6882401A42F0D093433B6000F07C
:10B25000DBFF32002B7851469A4009680A40010012
:10B2600099408A420AD04B4601341978E4B28C42A4
:10B27000E0D31CBC90469946A246F0BD69780139DE
:10B280004A425141091A484241416A68C9B2002AFA
:10B29000E9D018009047E6E77C200020AC20002091
:10B2A000A4200020A8200020F8B5124D0700280097
:10B2B00000F0BAFC002807D10124BC400E4E3368D0
:10B2C0001C4202D0A3433360F8BD380000F09CFF5D
:10B2D0000A4A136800280BD0234313603368002206
:10B2E0001C43074B28001968346000F03BFCEBE777
:10B2F000A343F2E784200020A8200020A4200020FF
:10B3000080200020F0B54746CE4680B50D000700EE
:10B3100083B014000720042A2CD900F021FE002855
:10B3200033D01C4B1C4A1F601C4B1D701C4B1C60F7
:10B33000002313601B4A6C1E1360E4B2002D1ED064
:10B34000194BE400994603233C1901AD083F984688
:10B35000002602E0083CBC4211D043462B70A37883
:10B3600020784A462900AE70EE706B7000F002FE45
:10B370000028EFD003B00CBC90469946F0BD0B4AB4
:10B3800000210B4800F0D8FBF4E700F0B7FD0028DF
:10B39000C7D0EFE7AC200020A42000207C200020B4
:10B3A00080200020A8200020A9B2010009B20100DD
:10B3B00030DE010070B5094D2B78002B0BD0002436
:10B3C000074E3268E300985C012100F08FFE2B7875
:10B3D0000134A342F5D8002070BDC0467C20002077
:10B3E000AC20002070B5094D2B78002B0AD000242A
:10B3F000074E3268E300985C00F0D6FE2B780134EB
:10B40000A342F6D8034800F00FFC70BD7C2000205A
:10B41000AC20002084200020002300B585B001AAC4
:10B420009060002103481380536000F005F805B0D8
:10B4300000BDC04601400000BFF34F8F034B044ADC
:10B44000DA60BFF34F8FC046FDE7C04600ED00E075
:10B450000400FA05A021F0B50023C6462B4A490096
:10B4600000B55350043153500431535004315350FC
:10B470004C39535004315350254B1B68002B35D0A9
:10B48000244900265458244A244F1268A41A002242
:10B490002402240A904602E0002D18D02B001A68DE
:10B4A000A24214D8A41AB6181A7CDD69002AF3D077
:10B4B000424699691A745A693B68002B1FD01000E4
:10B4C00098470028E8D0FFF7A7FF002DE6D11449E0
:10B4D000144A0B7812789A420BD0134A9B009E5064
:10B4E00080218023114A5B004903D15004BC90465F
:10B4F000F0BD0132D3B2022B04D00B70EDE708008F
:10B500009047C9E700230B70E7E7C04600100140F1
:10B51000D020002004050000CC200020B020002016
:10B52000C9200020C8200020C020002000E100E049
:10B53000F0B55746DE464E464546E0B5C74BC84ACD
:10B540001B68C8499A460978137889B0994200D196
:10B5500012E10133DBB2022B00D1F9E01370C24AD1
:10B560009B009A5853469B181B021B0A9946494652
:10B57000BA4B196001239C46BC4BBC491E78BC4B9E
:10B5800037001B680024059349780091B749496842
:10B590000191B64989780291B64909780391002151
:10B5A000884606910491B449079100998F421ED0B4
:10B5B00001987900C919834601370298FFB2381AF9
:10B5C000451EA841C9004042594407400878022856
:10B5D00000D19EE00328E8D1002BE6D01C74DB6983
:10B5E000002BFBD10121049100998F42E0D10499F5
:10B5F000002900D0EBE1069B002B02D04946974B77
:10B6000019604346002B02D09A4B03991970634688
:10B61000002B00D018E10024964B00961B7806936F
:10B620008E4B1B689946059B9C46002303939A46C4
:10B630009846924B65469B46002C30D06268A168C4
:10B640002000E4694B46D31A1B021B0A5B4557D8FE
:10B650005B180360424642608260012202744246E7
:10B66000C261002D00D19FE02A689A4200D394E085
:10B67000009E2900844603E00A689A4200D397E0BE
:10B680000800C9699B1A0029F6D102006046944659
:10B69000009603606346C161D861002CCED152464A
:10B6A000009EB74200D18DE0019A73009B19944629
:10B6B0000136029AF6B2921B511E8A41DB006344A6
:10B6C00019785242164001220129EAD15868027CB9
:10B6D000002AE6D192469A6800964260D968816055
:10B6E0001E69C6605B698361069B002B67D052466A
:10B6F0009A464B46D31A1B0242601B0A5B45A7D9E8
:10B700004B469A1A1202120A8A423AD28B1A0360E4
:10B71000A0E74D68002B00D147E79B469D4219D01A
:10B72000180000E00800C169002900D13DE78D4202
:10B73000F8D1834685420ED058462968ED69C56127
:10B74000002D00D131E728688346594429602CE751
:10B75000002303E71D000121DB690491002BEBD1DD
:10B7600001200799886001218846039106910021F4
:10B77000894641460491DFE70023D14600229C46DA
:10B78000FAE6434603604360836001230374434643
:10B79000C361002D08D000232A68D31A2B6001232F
:10B7A000C5610393050047E701230500039343E7C1
:10B7B00000960600D21A60460A60B44669E7012383
:10B7C0009A463FE7AC46002A00D0FDE0039B002BE1
:10B7D00002D06246264B1A60254B059A1B6893429D
:10B7E00002D1049A002A25D0002B00D1B8E0244AC7
:10B7F0002148244C81584A468A1A12022578120A96
:10B800001B680332002D62D0934200D21300A8249B
:10B810004B4419481B021B0AE400194D03514259BD
:10B820005B1A521A1202120A1B0203321B0A9A42B4
:10B8300000D96FE000230F4A137009B03CBC90465A
:10B840009946A246AB46F0BD00256446059BB4462A
:10B8500000210020A946B8462E002BE0CC20002075
:10B86000C8200020C9200020C0200020B4200020D3
:10B87000D0200020BC20002000100140FEFF7F00EF
:10B8800004050000BD2000201D68954200D95BE042
:10B890004946521B4019DD681960DF69002D07D049
:10B8A0005146DE611E0009180902090A59609D60AF
:10B8B00021003B00002BE7D1320047466646A446F4
:10B8C0001400002900D08DE063460493A4E680258F
:10B8D000D1266D02B6008551403E8551C027802695
:10B8E000444DB6027F00EE512E60012505604248AE
:10B8F000424F06682F20C046C046C046C046C046DC
:10B90000C046C046C046BE4200D0C0460138F2D153
:10B91000257079E7435939490351374B1A682F236A
:10B92000C046C046C046C046C046C046C046C046E7
:10B930008A4200D0C046013BF2D1802380212D4AAB
:10B940005B008902D15075E7300047466646A44641
:10B95000040000294AD1AA1A1A60634604935BE6E0
:10B96000802080222349800288508022D220012515
:10B970002349520280000A5040380A501E4A4D6046
:10B9800010682F221D4C1600C046C046C046C04657
:10B99000C046C046C046C046A04200D0C046013E98
:10B9A000F2D18D6017490B60C046C046C046C04604
:10B9B000C046C046C046C046A04200D0C046013A7C
:10B9C000F2D1114A137035E7104B1F70FEE6104993
:10B9D0000B6005990593C91A0800411E8841C1B240
:10B9E000049108E60A4A059313606DE70849059338
:10B9F0000B60B0E700E100E0542000200024F400D8
:10BA000000100140CC200020BD200020B4200020E8
:10BA1000D0200020F0B5DE4657464E46454603246A
:10BA2000E0B59B46144000D064E0002A00D161E0FC
:10BA300080278025334EBF027751D2238025324F95
:10BA40006D029B00FD50403BFD5001232F4D7B605C
:10BA500099462B682F259C462D4B98462B00C046B7
:10BA6000C046C046C046C046C046C046C046C445A3
:10BA700000D0C046013BF2D14B46BB60C046C04639
:10BA8000C046C046C046C046C046C046C44500D0B9
:10BA9000C046013DF2D15B461E4D2C701E4D2B6001
:10BAA00000251E4B1C8099705A601D4B80221C6023
:10BAB0001C4BC5211D701C4B52031D70C0235B0025
:10BAC000F25089007358FF34A3433F3C2343735023
:10BAD000A123DB0032600439F8507358134A002068
:10BAE0001A40C0231B0213437350114BFA58114BD9
:10BAF0001A6000E007203CBC90469946A246AB463F
:10BB0000F0BDC04600E100E00010014054200020DC
:10BB10000024F400BD200020B0200020B42000202C
:10BB2000D0200020C8200020C9200020FF00FFFFF7
:10BB300004050000CC200020094B5B68002B0AD0D4
:10BB4000002A0AD0002808D00368187C002802D1F7
:10BB500059745A6170470820FCE70720FAE7C0468D
:10BB6000B4200020F0B54746CE4680B52A4C83B0BD
:10BB7000636806000F009046002B44D0002842D096
:10BB800004293ED94369002B3DD0437C012B3CD096
:10BB9000002399466B46DD1D002328002B7000F022
:10BBA00087F86178A3784A1CD2B29B1A581E834149
:10BBB0005B421A402378934229D04B005B1861689E
:10BBC000DB008C466344002B21D0012113481970FF
:10BBD00013495E604158DF609960494619614146EA
:10BBE00028785961627000F083F88023802100205A
:10BBF0000C4A5B004903D15003B00CBC90469946F7
:10BC0000F0BD0720F8E70820F6E78946C2E7287864
:10BC100000F06EF80420EFE7B4200020001001408F
:10BC20000405000000E100E070B51F4C82B06368BD
:10BC30000600002B30D000282ED04369002B2BD0DB
:10BC40006A460023D51D037428002B7000F030F8DD
:10BC50006178A3784A1CD2B29B1A581E83415B427A
:10BC60001A402378934219D04B005B186168DB00BF
:10BC70008C466344002B11D0022119705E60287835
:10BC8000627000F035F8802380210020074A5B00B5
:10BC90004903D15002B070BD0820FBE7287800F0BE
:10BCA00027F80420F6E7C046B420002000E100E0B9
:10BCB000F0B5EFF3108172B60A4B5A68002A0DD125
:10BCC00001248025084E5C607459084F3C401C607C
:10BCD00077510270002900D162B6F0BD01230370D4
:10BCE000F8E7C0469022002000E100E0FC06FFBC1F
:10BCF00010B5084B5A68002A0BD0002809D1EFF381
:10BD0000108272B604491C680C605860002A00D189
:10BD100062B610BD9022002000E100E0044BA0219B
:10BD20001A5C01239340034AC9058B507047C046F3
:10BD300034DE01000C050000044BA0211A5C012335
:10BD40009340A122C905D2008B50704734DE010018
:10BD5000A02303220B49DB055A5004315A500A49EB
:10BD60005A5004315A50A1228021D200890399509F
:10BD70008021C903995080210904995080214904E8
:10BD800099507047540700005C07000010B51A4B2B
:10BD90001A68002A14D0002280211A60C2220123CE
:10BDA000164CC90592008B506370A368002B07D016
:10BDB0001A6800205B68A2609847A368002BF7D13F
:10BDC0000F4B1A68002A15D000221A608022C22365
:10BDD00002219B00D205D1500123084CA370236996
:10BDE000002B07D01A6801205B68226198472369FD
:10BDF000002BF7D110BDC04600010040D420002028
:10BE00000401004010B500280BD1064CA368002B9C
:10BE100007D01A6800205B68A2609847A368002BCF
:10BE2000F7D110BDD420002030B583B06B46DD1DA6
:10BE3000002328002B70FFF73BFF144C2378002BC6
:10BE400009D0E36828780133E3600123A370FFF78A
:10BE50004FFF03B030BD6360A3602361E3600C4B10
:10BE60001B68DB070CD501F027FF002805D18022D5
:10BE7000A3230121D205DB00D15001232370E0E789
:10BE80000321002000F006F8EDE7C046D420002092
:10BE900000E100E0FF22032330B51400C5B22B40BF
:10BEA000DB009C4089010A40E4439A40002814DBEF
:10BEB000104B80089C46C023800060449B00C15802
:10BEC0000C402243C2501F23C0211D401E3BAB40EB
:10BED000084A49005350136030BD0F2306492B40D8
:10BEE0008C46083B9B089B006344D9690C40224365
:10BEF000DA61E8E700E100E000ED00E070B544251C
:10BF0000144C665D002E22D101235B4223606360E6
:10BF1000A360E36023616361A361E3612362636201
:10BF2000A362E36223636363A363E3632364032184
:10BF30000620FFF7AFFF084B80211E60C123074A90
:10BF40009B000906D15001230020635570BD0820D5
:10BF5000FCE7C046E82000207C6100400060004013
:10BF60004423034AD05C431E9841C0B27047C04688
:10BF7000E8200020F0B5CE46474680B5584B9146A4
:10BF80001D1820352E7808247F2E3DD9CF78002F1C
:10BF90003FD11A69013200D199E005240826A50095
:10BFA0005A5901325AD0621C950094465A590132AE
:10BFB00000D18AE0A21C9446B24224D295005A597C
:10BFC000013200D181E0E21C9446B2421BD29500BE
:10BFD0005A59013200D178E0221D9446B24212D261
:10BFE00095005A59013200D16FE0651DB5420AD261
:10BFF000AA009A58013200D16FE00634B44202D24E
:10C00000DA69013228D0042420000CBC90469946FD
:10C01000F0BD1A68012404260132C0D100264A4628
:10C020002E701A608A78002A2AD0A024E405A4463B
:10C03000E025022782006244ED005459BC4354516C
:10C040000A78C978002928D19B193C3319789201C4
:10C050000A431A700024D7E707241C251A189446AF
:10C0600020229046C444624666B216704A465A512F
:10C07000002FD7D11C193C3420708A78002AD4D1E3
:10C080000200A0254C78C132FF329200A400ED05D9
:10C0900054510A78C9780029D6D01249B3008C4689
:10C0A000A2216344C9005C580F4D00022C40F825C2
:10C0B0006D012840C0255C501204AD025C582A4036
:10C0C00010432043585000249EE76446C6E70424EA
:10C0D0004A462C701A610426CCE72C00AD00BDE75F
:10C0E000E820002000600040FFE0FCFF0023F0B5E6
:10C0F0002A4C22182032D356032B1FDDE3183C3381
:10C100001B789B09032B3AD0013B5A1E9341802296
:10C110005B42520213408022920294466344A02262
:10C12000D2059446E02280006044D20081581C4C25
:10C130002140815081580B438350F0BDD8B2032871
:10C14000FBD8184DA227AC46012698006044FF009A
:10C15000C5593543C5511800654600274030800059
:10C1600080B247510029E8D0127852B29200125999
:10C17000002AE2D09E40C1239B00EE50DDE7A022C2
:10C18000A223D205DB00D2580123C2401340C022B3
:10C1900092029446013B1B046344C0E7E820002060
:10C1A000FFFFFCFF0060004010B5144B1B1820334C
:10C1B0001B785BB2032B12DCDAB2032A0ED8104ACA
:10C1C000A2249446012299006144E4000859904356
:10C1D0009A40C223085161469B00CA5010BDA0235B
:10C1E000DB059C46E02380006044DB00C258054923
:10C1F0000A40C250C258C250F0E7C046E8200020B2
:10C2000000600040FFFFFCFFA022A223D205DB005C
:10C21000D358C340012018407047C046F0B5DE46F1
:10C2200057464E4645460021E0B5CB4A87B00391BC
:10C2300013680024012B00D148E1C84B1A68012A79
:10C2400000D150E1C64B1A68012A00D15BE1C54B11
:10C250001A68012A0FD0C44B1B68012B00D15EE184
:10C26000230717D1002C34DB07B03CBC904699461D
:10C27000A246AB46F0BDC122BC49920089580822B3
:10C280000A42E8D000211960B74B14431B68012B08
:10C2900000D144E11F239946B54BA2270126002572
:10C2A0009846FF0026420ED04946B04AAB009A1885
:10C2B000D059000A0840D1594246D3588903890F02
:10C2C000002B00D0984701357600042DEAD1002CD0
:10C2D000CADA00230493013B059341339846C026F4
:10C2E000A34C4346E1564B1C2CD007230127C9B26F
:10C2F00008000B409F40B043C20805AB9B5C1F4247
:10C3000020D0231820331B7889095BB29B00E358A7
:10C310009B46002B00D16CE1032900D16CE1A025E4
:10C32000ED05A94683009944E0234D46DB00EB5818
:10C3300003ADAA5C9B039B0F174200D027E1032BA0
:10C3400000D16DE100274123E1564B1C37D0072374
:10C350000125C9B20B409D4008002B00B043C20824
:10C3600005ADAD5C2B422AD02518AC462025A94648
:10C37000CC4465462D7889096DB2AD0065590191AF
:10C38000A946002D00D126E1032900D126E1850030
:10C39000AA46A025ED05AC46E025ED00E244AC46FA
:10C3A0005546614669588903890F8C4603A98A5C02
:10C3B000134200D0F2E06346032B00D179E142231F
:10C3C000E1564B1C37D007230125C9B20B409D40D5
:10C3D00008002B00B043C20805ADAD5C2B422AD04B
:10C3E0002518AC462025A946CC4465462D788909F8
:10C3F0006DB2AD0065590191A946002D00D101E152
:10C40000032900D101E18500AA46A025ED05AC462F
:10C41000E025ED00E244AC46554661466958890383
:10C42000890F8C4603A98A5C134200D084E06346DE
:10C43000032B00D126E14323E1564B1C36D00723C2
:10C440000125C9B20B409D4008002B00B043C20833
:10C4500005ADAD5C2B4229D02518AC462025A94658
:10C46000CC4465462D7889096DB2AD0065590191BE
:10C47000A946002D00D1A0E0032900D1A0E085004D
:10C48000AA46A025ED05AC46E025ED00E244AC4609
:10C490005546614669588903890F8C4603A98A5C11
:10C4A000134267D16346032B00D1D2E0002F00D1A5
:10C4B000DAE6A022A223D205DB00D358039A9342E6
:10C4C00000D1D1E60393049B05930AE7C120274CD2
:10C4D000800024581C4000D1AFE6204B11601A6840
:10C4E000012A00D0AEE6C1222049920089580222DA
:10C4F0000A4200D1A6E600211960194B14431A68BC
:10C50000012A00D0A3E6C1221849920089580422CA
:10C510000A4200D19BE600211443196097E60022ED
:10C52000114B1A6080231B061C43A022A223D205B4
:10C53000DB00D358039393E66346022B00D07AE7DF
:10C54000019B032B00D1D3E04B46002B00D172E7B7
:10C550000199C8476FE7C046006100400461004090
:10C56000086100400C6100407C61004000600040B8
:10C57000E82000206346022B98D1019B032B00D1B9
:10C58000AEE04B46002B91D00199C8478EE7022BB5
:10C5900000D0D7E6032959D0002751E06346022B8B
:10C5A00000D00CE7019B032B00D19DE04B46002BF4
:10C5B00000D104E70199C84701E7032900D075E7D6
:10C5C00004A98C4694446146097819438A46614619
:10C5D00055460D7053E7032900D0F0E604A98C46B8
:10C5E00094446146097819438A46614655460D7060
:10C5F000CDE6032900D0A5E604AB9B181D783D438A
:10C600001D708CE6032900D015E704A98C469444DC
:10C610006146097819438A46614655460D70F2E62F
:10C620000329B9D180229202E0234D46DB00EF5866
:10C63000314D2F404D46EF50EF581743EF50012733
:10C640005B46002B00D17EE6D8477CE6C0229202F2
:10C65000EAE7019B032B94D180239B029C46E023B5
:10C660005246DB00D258244901370A405146CA508D
:10C67000CA5861460A435146CA504B46FFB2002B86
:10C6800082D116E7019B032B00D05DE780239B023C
:10C690009C46E0235246DB00D258174901370A4036
:10C6A0005146CA50CA5861460A435146FFB2CA5061
:10C6B0004AE7019B032B00D078E780239B029C462E
:10C6C000E0235246DB00D2580B4901370A4051465D
:10C6D000CA50CA5861460A435146FFB2CA5065E77C
:10C6E000C0239B029C46BAE7C0239B029C46E7E717
:10C6F000C0239B029C46CCE7FFFFFCFFC12330B563
:10C70000614A9B00D35885B09B055ED592235B00A0
:10C71000D158002959D00021D1508121E533FF3370
:10C720008900D150594B997E002901D101315160C6
:10C73000022269460A7090215348C900425842506B
:10C7400069460392DA7D68460A72DA6819680192CE
:10C750000022DA751A765B6898478E214A4A4900AA
:10C760005358002B12D0494B9C8A987D844257D352
:10C7700000245450002809D06A46107214709A6838
:10C780009C75196801925B6868469847A2233E4AE7
:10C790005B00D158002916D00021D1503B4B997E27
:10C7A000002901D001211160DA7D002A0BD000227E
:10C7B00068460121DA755A7E01700272DA681968DA
:10C7C00001925B68984705B030BDC1232E4A9B009B
:10C7D000D3585B07C1D5842149005358002BBCD0E6
:10C7E0002A4BD87D002827D15050A321C900525888
:10C7F0005A7E8242B1D11A7E1968002A2AD0DA758F
:10C800001A69D868DA6000226D465C7E1A765A761C
:10C81000013201902A702C725B68684698479CE749
:10C8200000205050998A9868405C998A013189B2F9
:10C830009982174BD050A9E700205050A320C00088
:10C84000597E1258D86842545A7ED87D0132D2B2ED
:10C850005A76CDE79A7E002A02D101200A4A50601A
:10C86000C222812408489200A400845000226C4611
:10C870000120DA755A7E20702272DA6868460192C9
:10C880005B68984769E7C0460020004030210020DF
:10C890001C05000073DF704776DF70477ADF704752
:10C8A0007CDF70477FDF7047A8DF7047A9DF7047E4
:10C8B00067DF704748DF704710B5FEF7ADFD10BD6C
:10C8C00010B50220002902D1FFF736FA10BDFFF79C
:10C8D00025FAFBE710B50378002B00D010BD054BFF
:10C8E0003B211888FFF7D8FF0028F7D0FEF794FD0A
:10C8F000F4E7C0465020002010B5112809D10648A1
:10C9000001F046F9082302009A4304D0034B9842F1
:10C9100001D0FEF781FD10BD0C2200200230000086
:10C9200010B5038886B00400132B00D17BE00FD92B
:10C93000512B62D049D9522B3DD0552B0ED1A08816
:10C940001321FFF7A9FF002808D0FEF765FD05E0D9
:10C95000102B3DD0112B0AD0022B47D0200000F025
:10C96000E7FE2100354801F017F806B010BD0120A0
:10C97000FFF7E2F90122324B52421A80FEF732FDF4
:10C98000002801D0FEF748FD182200216846FEF776
:10C9900031FC00236A4601931370137268464033DA
:10C9A0000493FFF777FF002801D0FEF735FD002044
:10C9B000FFF7B4F9D2E7224B0022188800210023A8
:10C9C000FFF774FF0028C9D0BFE73A2BB7D0C5E7FF
:10C9D0000120FFF7A3F90020FFF7AEF9A288184B5A
:10C9E0001A80FEF7E7FC0028B8D0AEE78088002167
:10C9F000FFF75EFF0028B1D0A7E78379002BADD009
:10CA0000827B043A022AA9D8022B00D001236A466D
:10CA10001370C1235B009380A0886946FFF744FF31
:10CA200000289BD091E7064B00221888852100231F
:10CA3000FFF738FF002800D190E786E70C2200209E
:10CA400050200020F0B5A3B0FFF782F900235D4A23
:10CA500005210020FEF7DEFF002801D0FEF7DCFCF8
:10CA6000594A01215948FEF74DFC002801D0FEF734
:10CA7000D3FC574B04AD1B684822019304935549DE
:10CA80000023280001F01EF9002801D0FEF7C4FCA5
:10CA900013AC22000121002001F086F9002801D00A
:10CAA000FEF7BAFC200001F097F9002801D0FEF74C
:10CAB000B3FC494801F056F9002801D0FEF7ACFC60
:10CAC0001123464E2B70300001F09DF9310082B2E7
:10CAD0002800FFF7E5FE002801D0FEF79DFC0822A4
:10CAE00000212000FEF786FB3D4B20001393C82356
:10CAF0005B041493FFF7D2FE002801D0FEF78CFCF4
:10CB0000384F394B21003800139300F063FF0028A1
:10CB100001D0FEF781FC354B03AE3380BB7C3C2259
:10CB2000B37000212800FEF765FB022301272B705C
:10CB3000002104333C222000AF70EB70FEF75AFB5B
:10CB4000210028002782666100F0EEFA002801D05B
:10CB5000FEF762FC1C2200212000FEF74BFBA02206
:10CB600012036260A02200239202A26003221393A8
:10CB7000E38123741E4B200063611E4B2273A3616B
:10CB800000F09AFD002801D0FEF746FC1822002193
:10CB90002000FEF72FFB0023200023706360237228
:10CBA00040331793FFF776FE002801D0FEF734FCE0
:10CBB0000020FFF7B3F8FFF77DFE0028FBD0FEF75B
:10CBC0002BFCF8E74C2100206606000048200020DE
:10CBD00038DE0100C421002021C901003CDE010033
:10CBE0005000A0000C220020C1C801002315000045
:10CBF000D5C80100B9C8010071DF704772DF704706
:10CC000079DF70477DDF704765DF7047F0B5DE463E
:10CC100057464E464546E0B587B09B4610AB914619
:10CC200004CB07001B88029101931388904603935D
:10CC30000388002B68D000239A4604AB0024DD1C37
:10CC400003E03B880134A3422EDD7B68A1009C46B3
:10CC50000422614405A801F0CDF80022290005A8AE
:10CC6000FFF7D2FF061E2CD12B784B45E9D1434666
:10CC700051461A884B469B1800292AD0019999429F
:10CC800040DB5A44290005A8FFF7BEFF002837D132
:10CC900042462B78128801349B18424613800123A8
:10CCA0009A463B88A342D0DC5346002B2CD0434607
:10CCB0001B88039A013B9B1A9BB2FF2B22D8594633
:10CCC0008B54300007B03CBC90469946A246AB4618
:10CCD000F0BD01990233994214DB4346013292B20E
:10CCE0001A805B46029905A8995443461A88290080
:10CCF000013292B21A805A44FFF786FF0028C7D04B
:10CD00000600DEE70C26DCE70026DAE7F0B557463A
:10CD10004E464546DE460023E0B5178813802D3386
:10CD20001400C25C85B005000E000023002A00D06C
:10CD3000C3E0AA78002A00D0C9E0E978002914D01D
:10CD4000DA1CBA4200D9BAE00222F2542388013A2E
:10CD500001339BB22380F254238801339BB223809A
:10CD6000F154238801339BB223806A68002A15D0CE
:10CD7000D91CB94200D9A2E002211278F1542388CB
:10CD8000083101339BB22380F154238852B201331E
:10CD90009BB22380F2542388013323802B89002BFC
:10CDA00000D0E2E02B8A002B00D0F7E02B8B002B89
:10CDB00000D00DE12B6A002B42D02088821DBA42A0
:10CDC00000D97CE01A889046052A00D8CBE0B44A06
:10CDD000B449424492B289468A4200D8C3E05A8894
:10CDE000052A00D8BFE0AE498C469444614689B21A
:10CDF000494500D8B7E0AC49884504D08A4202D002
:10CE0000904500D9AFE00522122132542288013228
:10CE100092B22280B1542288013292B222801988C3
:10CE2000B2181170090A51702288023292B222801F
:10CE30005988B2181170090A51702388023323806F
:10CE40006B6A9846002B2ED09A882088911C831CF0
:10CE50005B18BB4233D8FE2931D803323254FF224B
:10CE6000238801339BB22380F25442462388013346
:10CE70009BB223801288F3181A70120A5A70434624
:10CE80002088023080B220809A88002A0BD09968CE
:10CE9000002900D167E0301800F0ACFF424623883B
:10CEA00092889B1823802C23EB5C002B00D0A9E0F8
:10CEB0002B78002B53D1002002E0082F28D80C201B
:10CEC00005B03CBC90469946A246AB46F0BD043343
:10CED0000C20BB42F4D802A8FFF792FE0028EFD145
:10CEE00003222388F2542388163201339BB2238015
:10CEF000F2546A462388128901339BB22380F318C7
:10CF00001A70120A5A70238802339BB2238014E7E6
:10CF100002A8FFF771FE0028D2D108220921238838
:10CF20006944F2542388133201339BB22380F254B4
:10CF30002088153A013080B22080301800F05AFF66
:10CF40006A462388127A06339BB22380002A00D0D7
:10CF5000DBE0F254238801339BB22380E9E62A8880
:10CF6000012A00D0A2E00720AAE708239846A84497
:10CF7000019700943300022202214046FFF746FE4B
:10CF800000289DD1019700943300102206214046CD
:10CF9000FFF73CFE002800D104E791E710239846F4
:10CFA000A844019700943300022203214046FFF772
:10CFB0002DFE002800D083E7019700943300102253
:10CFC00007214046FFF722FE002800D1EEE677E772
:10CFD00018239846A8440197009433000222142194
:10CFE0004046FFF713FE002800D069E70197009440
:10CFF0003300102215214046FFF708FE002800D11B
:10D00000D8E65DE7AB6A9846002BACD09B8802332C
:10D01000FE2B00D953E70022914616329246163273
:10D0200093462088524601333354238801339BB200
:10D030002380F2544246238801339BB22380128816
:10D04000F3181A70120A5A7043462088023080B2D0
:10D0500020809A88002A0CD09968002900D182E7A4
:10D06000301800F0C7FE434620889B88C01880B265
:10D0700020804B460133DBB299465B46EB5C4B4567
:10D0800000D815E74B46AA6A5B0090464B449B00CC
:10D09000984443469B880233FE2BC3D90FE7C04612
:10D0A0007FF3FFFF7DF30000FFFF00002288901C4C
:10D0B000B84200D903E7012B05D16B7802339B18E6
:10D0C0009F4200D2FBE66B46023FBF1ABFB2301848
:10D0D00002A91F81FFF796FD002800D0F0E62B780B
:10D0E000022B1AD0012B12D00822FE2F00D9E6E61F
:10D0F0002388791CF154238801339BB22380F25496
:10D1000023880133FF182780DAE6012221E76B78B4
:10D110009F42E9D31F000822E7E76B461B899F4225
:10D12000E2D31F000922E0E7F0B557464546DE4648
:10D130004E46E0B595B01F236A4604000F0003ADCC
:10D14000D381002825D0C1784B072AD500232B8016
:10D150002D33C35C002B00D037E18378002B39D10D
:10D16000032200230020904604AE02223254581CB1
:10D1700002339BB280B2013A3254F15443469BB21F
:10D180002B806268002A59D0D91C1F2946D90C204F
:10D1900008E000262880002F00D111E1FB78002B49
:10D1A00007D0072015B03CBC90469946A246AB4636
:10D1B000F0BD0E336B441A000CA93800FFF7A6FD32
:10D1C0000028EFD16B469B7B0CAA29783000FFF733
:10D1D00015FDE7E70CAB98464046FFF711FD002828
:10D1E000E0D1032219212B8804AEF2545A1C92B2CA
:10D1F000B154424611889A1C92B2B2181170090AB1
:10D20000517004339BB2E1782B800029B9D0DA1C2D
:10D21000180090461F2AA8D90C20C3E7127829804D
:10D2200052B291460222F2545A1C92B290460A22FD
:10D23000404632544A4602339BB2F2542389002BB3
:10D2400000D0F3E0238A002B00D057E1238B002B82
:10D2500000D070E1236A002B3DD02A88911D8A46B8
:10D260001F2900D993E7188805289AD9CB498C46FD
:10D270008444614689B28C46C94988468C4500D8A9
:10D280008FE759888C46052900D88AE7C34961444D
:10D2900089B2414500D884E7C249884204D08C4510
:10D2A00002D0604500D97CE705201221B054501C03
:10D2B00080B23154901C80B22880198830180170D7
:10D2C000090A417004325B8892B2B21813701B0ACB
:10D2D000537053462B80636A9846002B2ED09B8850
:10D2E0002A88981C9946931CC1181F2900D94EE71B
:10D2F000FE2800D94BE74946FF200331B154511CA9
:10D3000089B2705441462B801B0409881B0CF3180A
:10D310001970090A59704346043290B228809A88DD
:10D32000002A0BD09968002900D13AE7301800F0A4
:10D3300061FD42462B8892889B182B802C23E15C50
:10D34000002900D08FE02378002B00D123E722882A
:10D35000012A00D125E72A88901C1F2800D916E74A
:10D36000012B04D163781B181F2B00D90FE71D2355
:10D370009A1A93B299464A460CAB3018190098464F
:10D380001A80FFF73FFC002800D00BE72378022B20
:10D3900000D1F2E0012B00D1F7E043464A460821D4
:10D3A0001A804B46FE2B00D9F1E64A462B88013203
:10D3B000F2545A1C023392B24B44B1542B80EAE629
:10D3C0006B460022DF810023FFE60CAB1800984675
:10D3D000FFF712FC002800D0E4E608221B212B886E
:10D3E00004AEF2545A1C92B2023398B2B1541631C0
:10D3F000288006226944301800F0FCFC41462B8846
:10D4000009789A1D92B22A80002900D0B2E0B218A1
:10D4100011700733A2789BB22B80002A00D1A7E0BD
:10D4200004330C201F2B00D9BCE6D5E60823984610
:10D430001733A0449946019300953300022202213C
:10D440004046FFF7E3FB002800D0ABE64B460095D3
:10D4500001931022330006214046FFF7D7FB002836
:10D4600000D1EFE69EE6A36A9846002B00D198E62D
:10D470009B880233FE2B00D989E6002291461632A2
:10D4800092461632288893460CE04B46A26A5B000F
:10D4900090464B449B00984443469B880233FE2BA6
:10D4A00000D974E6524601333354431C9BB2F25404
:10D4B0004246831C9BB22B801288F3181A70120A02
:10D4C0005A704346043080B228809A88002A0ED0D1
:10D4D0009968002900D164E6301800F08BFC4346BF
:10D4E00028889B88C0185B4680B2E15C28804B4648
:10D4F0000133DBB299468B42C7D324E71023984609
:10D500000F33A04499460193009533000222032172
:10D510004046FFF77BFB002800D043E64B460095D2
:10D5200001931022330007214046FFF76FFB0028CC
:10D5300000D18BE636E6182398460733A044994677
:10D54000019300953300022214214046FFF75EFB51
:10D55000002800D026E64B460095019310223300A8
:10D5600015214046FFF752FB002800D172E619E66C
:10D57000E1784AE60121B1544BE743461B889945BF
:10D5800000D20AE7994609210BE76378994500D252
:10D5900003E7424699461380082102E77FF3FFFF25
:10D5A0007DF30000FFFF000075DF704776DF7047F6
:10D5B0007ADF70477BDF704710B5184B82B0188850
:10D5C000174B984214D0174A174C13780133DBB22B
:10D5D0001370217B99420DD200231370237C002B02
:10D5E00012D16369002B03D0002201A80270984772
:10D5F00002B010BD0D49FFF7D7FF0028F8D0A3698E
:10D60000002BF5D09847F3E73B21FFF7CFFF002829
:10D61000E7D0A369002BE4D09847E2E72A22002054
:10D62000FFFF0000782200202C2200207022002022
:10D6300030B51B4B1B4A5B88118883B099420CD8CC
:10D6400052889A4209D3184B5B69002B03D0012200
:10D6500001A802709847154C0BE0144C2378002B5E
:10D660000BD0114B5B69002B03D0002201A8027084
:10D6700098470023237003B030BD0D4B0A4D1B7833
:10D68000002B0BD0A96800220A48FEF76BFA00288D
:10D69000EFD0AB69002BECD09847EAE76968F2E776
:10D6A00068220020702200202C2200202822002046
:10D6B0007822002048220020164902000B0070B595
:10D6C00032CA32C332CA32C312681A600022124B05
:10D6D00001681A70002916D0104C0832200000F0A2
:10D6E00089FB2000FFF764FF00280BD101220C4BBF
:10D6F00052421A8000220B4B00211A700A480B4A32
:10D70000FEF71AFA70BD0548FFF754FF0028EDD068
:10D71000F8E7C0462C22002028220020702200209A
:10D720002A220020782200204CDE0100B9D5010019
:10D7300030B5038883B0112B37D023D9122B08D0F2
:10D74000502B04D13B4CC288E3899A424CD003B0A1
:10D7500030BD394B08301A0012C812C2374A5B88F4
:10D760001188994233D9364C2378002B4ED0314B57
:10D770005B69002B03D0002201A8027098470023A8
:10D780002370E4E7102BE2D182882E4B18301A80E8
:10D79000294B06C806C300222B4B1A70254BDB8988
:10D7A000002BD4D1FFF744FFD1E70122254B524291
:10D7B0001A800022244B25481A70FEF735FA0028FB
:10D7C000C5D01C4B9B69002BC1D09847BFE752883E
:10D7D0009A42C8D3174B5B69002B03D0012201A8E2
:10D7E00002709847164CCAE7038A022BAFD1123059
:10D7F00000F02EF80028D5D11448FEF715FA0028BD
:10D80000A5D0A369002BA2D09847A0E70E4B094DE5
:10D810001B78002B0BD0A96800220C48FEF7A2F958
:10D820000028ACD0AB69002BA9D09847A7E769685E
:10D83000F2E7C0462C22002068220020702200203F
:10D84000282200202A2200207822002048220020BE
:10D85000012300781840704703210A4802680A43F0
:10D860000260094802680A4302600849084A094BF5
:10D870009B1A03DD043BC858D050FBDC00F012F8C3
:10D88000FDF742FC24050040540500406CDE010019
:10D89000E81F002060200020FEE7FEE7FEE7FEE72D
:10D8A000FEE7FEE72E4B1B78012B00D070472D4B77
:10D8B0001B681B07FAD1F0222B4B1B68134027D1A2
:10D8C0002A4B1B6813422BD0264B1B681B07EDD13C
:10D8D000F022254B1B681340402B2DD0F022224B09
:10D8E0001B681340A02B01D0D02BDFD1F0231F4A9F
:10D8F00012681A42DAD11E4A1368012B04D01D4B5C
:10D9000013601368012BFCD1C0221B4B1A60CDE7BA
:10D91000102B01D0302BDBD1144B1B681342D7D115
:10D92000164B174A1A608022164B12021A600C4BD3
:10D930001B78012BC8D0B9E70C4B1B681342CDD123
:10D940008022C1230121DB00D205D150044B1B787A
:10D95000012BABD1034B1B681B07BFD0A6E7C0460A
:10D96000E00F00F0E40F00F0E80F00F0EC0F00F023
:10D9700000EC06407593000014EC064004050040DE
:10D98000DFFF07C0186C0040A0DF7047A2DF7047C0
:10D99000A6DF704763DF704710B50B88112B15D0D9
:10D9A000502B05D0102B00D010BD8B888382FBE755
:10D9B000CA8843889A42F7D10B8A0631012BF3D1EA
:10D9C0008369002BF0D0097B9847EDE701235B4288
:10D9D0008382E9E7F0B5DE4657464E4645460123C9
:10D9E000E0B55B4283820B6895B08361040004A8B4
:10D9F0000200624B62CB62C221001B6812311360CD
:10DA0000FFF7C8FF071E07D0380015B03CBC904692
:10DA10009946A246AB46F0BDA37C02A98B70584B39
:10DA2000220001200B80FFF7AFFF071EECD103227D
:10DA300000216846FDF7DEFB6A46524B0DAD1380B0
:10DA4000937806229046934302229246524613430D
:10DA50006A460021937028001C22FDF7CBFB52463A
:10DA60002B7801AE1343102293465A4613432B7072
:10DA70006B466A466B61A37C00219373424B300076
:10DA8000938103226F60EF602F61AF61FDF7B2FBFE
:10DA900001235A469946134333700023424673705C
:10DAA000B37800219343524613430822934308322C
:10DAB00093434A4608A893431332B370FDF79AFB89
:10DAC00003AB08934B464A460A936B469A8523005C
:10DAD00020880A3308AA29000C970996FFF756FFF9
:10DAE000071E00D090E71C2200212800FDF782FBD2
:10DAF00052462B7800211343082213436A462B70A9
:10DB0000A37C30009373214B6F6093810322EF60FD
:10DB10002F616F61AF61FDF76DFB0F220121584648
:10DB2000337893430B431340034333707378934329
:10DB30000B431340424603437370B3780021934371
:10DB40005246134308229343083293434A4608A897
:10DB500093431332B370FDF74DFB03AB08934B4671
:10DB60004A460A936B4620889A852900A31C08AA76
:10DB70000C970996FFF70AFF070045E750DE010002
:10DB800023150000111100002415000025150000C8
:10DB9000F0B589B06B460E26DF1DD971012304ACA8
:10DBA00005006E441022002120003380FDF722FB87
:10DBB0000123A3706B89A88A21002380E760A660F7
:10DBC000FFF7E6FE09B0F0BD52DF704710DF704787
:10DBD00060DF704761DF704710B5FDF72DFC10BDA9
:10DBE000F0B557464E464546DE46E0B52D4B2E4E27
:10DBF0001D6899466B425D412C4B2D4F98462D4B2D
:10DC000083B09A46EDB23478E4B2002C26D101A854
:10DC1000FFF7DAFF052835D0002826D0FDF7FCFBFA
:10DC2000002D2DD13578EDB2002D17D143466A462F
:10DC30001B8801A993803B6818009B46FFF7CAFF29
:10DC4000052823D0002824D14B4658461B68984706
:10DC5000002CD8D033780124002BE7D003B03CBC93
:10DC600090469946A246AB46F0BD0198FEF7CAF829
:10DC700053461B68002B11D001989847002DD1D036
:10DC80000125C0E7002DE9D10124CBE7002CF7D016
:10DC9000E4E7FDF7C1FB002CDCD1B4E7002DC1D0D7
:10DCA0000125B0E77C220020852200207A22002076
:10DCB0008C22002088220020014B1878C0B27047C7
:10DCC0008422002070B5002930D0032421422DD1B8
:10DCD00001261C4D29601C491C4D0A801C4A1360FA
:10DCE0002B681E4208D080231A49EE50FFF76EFFC2
:10DCF000002806D02E6070BD1649FFF767FF002888
:10DD0000F9D1154B1E70FEF78FF8C5239B00EB5819
:10DD10009B0D1C40E30712D5104B5A68002A07D10F
:10DD200080220A4BD2031A600020E4E70720E2E7D2
:10DD300080221968D2030A431A600020DBE70848F2
:10DD4000D9E7C0468C2200207A22002000E100E0C2
:10DD500080220020D9DB01008422002090220020B4
:10DD600002200000002803D0024B186000207047FA
:10DD70000E20FCE77C22002010B5094B1B68002B0D
:10DD800006D09847002800D110BDFDF745FBFBE702
:10DD9000044B1B78002BF7D0FFF722FFF4E7C046B7
:10DDA000802200208422002070B5140005000E009F
:10DDB000142200212000FDF71DFA00230122236117
:10DDC000237B22809343237326726572002D01D03A
:10DDD0000123A372002070BD00B5054B83B00193F1
:10DDE000019B69460093FFF7F3FE019B03B000BD62
:10DDF000E81F0020002310B59A4200D110BDCC5C72
:10DE0000C4540133F8E70023C25C0133002AFBD17C
:10DE1000581E7047F8B5C046F8BC08BC9E4670470F
:10DE2000F8B5C046F8BC08BC9E467047E81F002005
:10DE30008420002015161718010000074E6F726429
:10DE400069635F426C696E6B7900000048220020B4
:10DE500023D1BCEA5F782315DEEF12120000000028
:04DE600000000000BE
:08DE6400A4D2FF7F01000000C1
:10DE6C0000000000000000000000000000000000A6
:10DE7C000000000000000000000000000000000096
:10DE8C000000000000000000000000000000000086
:10DE9C000000000000000000000000000000000076
:10DEAC000000000000000000000000000000000066
:10DEBC000000000000000000000000000000000056
:10DECC0011000300F9C80100FFFF00000024F4005A
:08DEDC00E9B00100C1B0010032
:040000031000D859B8
:00000001FF
