:020000021000EC
:10B00000008000201DEE01005DEE01005FEE0100FA
:10B010000000000000000000000000000000000030
:10B0200000000000000000000000000061EE0100D0
:10B03000000000000000000063EE010065EE01006A
:10B0400001C1010067EE010071CE010067EE010051
:10B0500067EE01000000000031C5010067EE01004D
:10B0600067EE010067EE010067EE010067EE010088
:10B0700067EE010067EE010067EE010067EE010078
:10B0800067EE01008DB4010067EE010067EE01007C
:10B0900069B5010067EE010089F3010067EE010068
:10B0A00067EE010067EE01000000000000000000F4
:10B0B0000000000000000000000000000000000090
:10B0C00010B5064C2378002B07D1054B002B02D07E
:10B0D000044800E000BF0123237010BD7820002049
:10B0E00000000000C8070200044B10B5002B03D07D
:10B0F0000349044800E000BF10BDC0460000000046
:10B100007C200020C8070200164B002B00D1144BF6
:10B110009D46402292029A1A924600218B460F4683
:10B120001348144A121A00F065F80F4B002B00D098
:10B1300098470E4B002B00D09847002000210400B8
:10B140000D000D48002802D00C4800E000BF00F0C0
:10B150002DF82000290002F07DFC00F011F8C04617
:10B160000000080000800020000000000000000037
:10B1700078200020D42700200000000000000000FC
:10B18000084B10B50400002B02D0002100E000BFE6
:10B19000054B1868836A002B00D09847200000F008
:10B1A00031F8C04600000000B805020070B5002666
:10B1B0000C4D0D4C641BA410A64209D1002605F0CD
:10B1C000EFF90A4D0A4C641BA410A64205D170BDCC
:10B1D000B300EB5898470136EEE7B300EB589847B9
:10B1E0000136F2E77020002070200020702000203F
:10B1F0007420002003001218934200D17047197088
:10B200000133F9E7FEE7C046F0B54F46D64646465D
:10B21000C0B5214B1978994600292AD01F4B00242C
:10B2200098461F4B1F4F01269A4603E00134E4B2B3
:10B230008C421ED243461B6832009C46E5006544A2
:10B2400028783B6882401A42F0D093433B6001F07B
:10B2500065F932002B7851469A4009680A4001008E
:10B2600099408A420AD04B4601341978E4B28C42A4
:10B27000E0D31CBC90469946A246F0BD69780139DE
:10B280004A425141091A484241416A68C9B2002AFA
:10B29000E9D018009047E6E794200020C420002061
:10B2A000BC200020C0200020F8B5124D0700280067
:10B2B00000F0D6FC002807D10124BC400E4E3368B4
:10B2C0001C4202D0A3433360F8BD380001F026F9D8
:10B2D0000A4A136800280BD0234313603368002206
:10B2E0001C43074B28001968346000F057FCEBE75B
:10B2F000A343F2E79C200020C0200020BC200020B7
:10B3000098200020F0B54746CE4680B50D000700D6
:10B3100083B014000720042A2CD900F0DBFF00289A
:10B3200033D01C4B1C4A1F601C4B1D701C4B1C60F7
:10B33000002313601B4A6C1E1360E4B2002D1ED064
:10B34000194BE400994603233C1901AD083F984688
:10B35000002602E0083CBC4211D043462B70A37883
:10B3600020784A462900AE70EE706B7000F0BCFF8A
:10B370000028EFD003B00CBC90469946F0BD0B4AB4
:10B3800000210B4800F0F4FBF4E700F071FF002807
:10B39000C7D0EFE7C4200020BC200020942000206C
:10B3A00098200020C0200020A9B2010009B20100AD
:10B3B000BC05020070B5094D2B78002B0BD0002482
:10B3C000074E3268E300985C012101F049F82B78C0
:10B3D0000134A342F5D8002070BDC046942000205F
:10B3E000C4200020002300B585B001AA9060002190
:10B3F00003481380536000F005F805B000BDC04657
:10B4000001400000BFF34F8F034B044ADA60BFF3E3
:10B410004F8FC046FDE7C04600ED00E00400FA058E
:10B4200000290CD0002A08D0531E1A4005D1826092
:10B4300001608380C260002070470920FCE70E2075
:10B44000FAE7C04610B584688288C3681B1B9A421D
:10B4500008D3C36813400268D154C3680133C36082
:10B46000002010BD0420FCE78268C3689A420AD01D
:10B470008368828813400268D35C0B708368013351
:10B480008360002070470520FCE7C046A021F0B58E
:10B490000023C6462B4A490000B55350043153508F
:10B4A00004315350043153504C39535004315350EC
:10B4B000254B1B68002B35D0244900265458244ABC
:10B4C000244F1268A41A00222402240A904602E0A3
:10B4D000002D18D02B001A68A24214D8A41AB6184E
:10B4E0001A7CDD69002AF3D0424699691A745A69B8
:10B4F0003B68002B1FD0100098470028E8D0FFF7CA
:10B5000071FF002DE6D11449144A0B7812789A4243
:10B510000BD0134A9B009E5080218023114A5B0070
:10B520004903D15004BC9046F0BD0132D3B2022B86
:10B5300004D00B70EDE708009047C9E700230B70BB
:10B54000E7E7C04600100140E820002004050000A5
:10B55000E4200020C8200020E1200020E02000207E
:10B56000D820002000E100E0F0B55746DE464E4608
:10B570004546E0B5C74BC84A1B68C8499A46097892
:10B58000137889B0994200D112E10133DBB2022B6A
:10B5900000D1F9E01370C24A9B009A5853469B1899
:10B5A0001B021B0A99464946BA4B196001239C4667
:10B5B000BC4BBC491E78BC4B37001B68002405936C
:10B5C00049780091B74949680191B6498978029153
:10B5D000B649097803910021884606910491B4493F
:10B5E000079100998F421ED001987900C9198346AE
:10B5F00001370298FFB2381A451EA841C9004042DF
:10B60000594407400878022800D19EE00328E8D179
:10B61000002BE6D01C74DB69002BFBD101210491C7
:10B6200000998F42E0D10499002900D0EBE1069BFC
:10B63000002B02D04946974B19604346002B02D09D
:10B640009A4B039919706346002B00D018E100242F
:10B65000964B00961B7806938E4B1B689946059B6C
:10B660009C46002303939A469846924B65469B4618
:10B67000002C30D06268A1682000E4694B46D31AE0
:10B680001B021B0A5B4557D85B18036042464260A9
:10B690008260012202744246C261002D00D19FE007
:10B6A0002A689A4200D394E0009E2900844603E071
:10B6B0000A689A4200D397E00800C9699B1A0029DA
:10B6C000F6D1020060469446009603606346C1616D
:10B6D000D861002CCED15246009EB74200D18DE0F9
:10B6E000019A73009B1994460136029AF6B2921B96
:10B6F000511E8A41DB0063441978524216400122F0
:10B700000129EAD15868027C002AE6D192469A685B
:10B7100000964260D96881601E69C6605B6983617A
:10B72000069B002B67D052469A464B46D31A1B0203
:10B7300042601B0A5B45A7D94B469A1A1202120AAD
:10B740008A423AD28B1A0360A0E74D68002B00D1E1
:10B7500047E79B469D4219D0180000E00800C169E8
:10B76000002900D13DE78D42F8D1834685420ED0B5
:10B7700058462968ED69C561002D00D131E7286878
:10B780008346594429602CE7002303E71D0001216B
:10B79000DB690491002BEBD101200799886001211E
:10B7A0008846039106910021894641460491DFE7CE
:10B7B0000023D14600229C46FAE6434603604360DC
:10B7C0008360012303744346C361002D08D0002326
:10B7D0002A68D31A2B600123C5610393050047E74C
:10B7E00001230500039343E700960600D21A604642
:10B7F0000A60B44669E701239A463FE7AC46002A4F
:10B8000000D0FDE0039B002B02D06246264B1A605D
:10B81000254B059A1B68934202D1049A002A25D031
:10B82000002B00D1B8E0244A2148244C81584A46D4
:10B830008A1A12022578120A1B680332002D62D080
:10B84000934200D21300A8244B4419481B021B0A40
:10B85000E400194D035142595B1A521A1202120A9E
:10B860001B0203321B0A9A4200D96FE000230F4AE1
:10B87000137009B03CBC90469946A246AB46F0BD59
:10B8800000256446059BB44600210020A946B84621
:10B890002E002BE0E4200020E0200020E12000200A
:10B8A000D8200020CC200020E8200020D420002038
:10B8B00000100140FEFF7F0004050000D52000209D
:10B8C0001D68954200D95BE04946521B4019DD686E
:10B8D0001960DF69002D07D05146DE611E0009188E
:10B8E0000902090A59609D6021003B00002BE7D145
:10B8F000320047466646A4461400002900D08DE079
:10B9000063460493A4E68025D1266D02B6008551D6
:10B91000403E8551C0278026444DB6027F00EE513F
:10B920002E60012505604248424F06682F20C04620
:10B93000C046C046C046C046C046C046C046BE42DD
:10B9400000D0C0460138F2D1257079E74359394912
:10B950000351374B1A682F23C046C046C046C04625
:10B96000C046C046C046C0468A4200D0C046013BE1
:10B97000F2D1802380212D4A5B008902D15075E7E6
:10B98000300047466646A446040000294AD1AA1A58
:10B990001A60634604935BE680208022234980027C
:10B9A00088508022D22001252349520280000A506B
:10B9B00040380A501E4A4D6010682F221D4C160058
:10B9C000C046C046C046C046C046C046C046C04647
:10B9D000A04200D0C046013EF2D18D6017490B60F5
:10B9E000C046C046C046C046C046C046C046C04627
:10B9F000A04200D0C046013AF2D1114A137035E797
:10BA0000104B1F70FEE610490B6005990593C91A8B
:10BA10000800411E8841C1B2049108E60A4A059314
:10BA200013606DE7084905930B60B0E700E100E0A3
:10BA30006C2000200024F40000100140E4200020CD
:10BA4000D5200020CC200020E8200020F0B5DE46E4
:10BA500057464E4645460324E0B59B46144000D069
:10BA600064E0002A00D161E080278025334EBF02C8
:10BA70007751D2238025324F6D029B00FD50403B11
:10BA8000FD5001232F4D7B6099462B682F259C4646
:10BA90002D4B98462B00C046C046C046C046C04607
:10BAA000C046C046C046C44500D0C046013BF2D1A6
:10BAB0004B46BB60C046C046C046C046C046C046B6
:10BAC000C046C046C44500D0C046013DF2D15B46E9
:10BAD0001E4D2C701E4D2B6000251E4B1C80997036
:10BAE0005A601D4B80221C601C4BC5211D701C4BD5
:10BAF00052031D70C0235B00F25089007358FF345D
:10BB0000A3433F3C23437350A123DB00326004393D
:10BB1000F8507358134A00201A40C0231B021343E5
:10BB20007350114BFA58114B1A6000E007203CBCCF
:10BB300090469946A246AB46F0BDC04600E100E003
:10BB4000001001406C2000200024F400D5200020CB
:10BB5000C8200020CC200020E8200020E020002089
:10BB6000E1200020FF00FFFF04050000E42000208A
:10BB7000094B5B68002B0AD0002A0AD0002808D0A5
:10BB80000368187C002802D159745A617047082054
:10BB9000FCE70720FAE7C046CC200020F0B5474676
:10BBA000CE4680B52A4C83B0636806000F009046ED
:10BBB000002B44D0002842D004293ED94369002BF1
:10BBC0003DD0437C012B3CD0002399466B46DD1DC4
:10BBD000002328002B7000F08FF96178A3784A1CAD
:10BBE000D2B29B1A581E83415B421A40237893427B
:10BBF00029D04B005B186168DB008C466344002B46
:10BC000021D001211348197013495E604158DF604B
:10BC1000996049461961414628785961627000F07F
:10BC20008BF98023802100200C4A5B004903D1500E
:10BC300003B00CBC90469946F0BD0720F8E70820F9
:10BC4000F6E78946C2E7287800F076F90420EFE7A6
:10BC5000CC200020001001400405000000E100E0BD
:10BC600070B51F4C82B063680600002B30D00028EE
:10BC70002ED04369002B2BD06A460023D51D0374B8
:10BC800028002B7000F038F96178A3784A1CD2B2F2
:10BC90009B1A581E83415B421A402378934219D065
:10BCA0004B005B186168DB008C466344002B11D0AD
:10BCB000022119705E602878627000F03DF98023DF
:10BCC00080210020074A5B004903D15002B070BDBB
:10BCD0000820FBE7287800F02FF90420F6E7C0469B
:10BCE000CC20002000E100E030B5047885B0012CC4
:10BCF00022D0002C11D0022C0DD102AB1C70C368D5
:10BD00000122254925480193039300F0B3FF244BFA
:10BD100002A81B68984705B030BD224C224821007C
:10BD2000FFF7A2FB002831D0032302AA13701C4B9B
:10BD300010001B689847EEE743681C4D19782800EF
:10BD4000FFF780FB002816D002AB1C70144B039049
:10BD50001B6802A89847A968AA88EB685B1A9A42F0
:10BD600003D20122124B1A70D5E701220A490B486F
:10BD700000F080FFCFE7AA68EB689A42EBD002ABF5
:10BD80001870074B02A81B689847E4E701222100BE
:10BD9000024800F0E3FEBEE7142100204C20002002
:10BDA000EC2000201821002004210020F020002099
:10BDB00000210020F0B51E00254B89B005000C1EA7
:10BDC0001A6043D08A8823480968FFF729FB0028B6
:10BDD00001D009B0F0BDA289A1681F48FFF720FB80
:10BDE0000028F6D169460A001C4B91CB91C291CB39
:10BDF00091C211CB11C26B698B612B7C0E775A1EDD
:10BE000093410B756B7C5A1E93410E225B4213408B
:10BE10004B75EB688B60AB68CB602B684B606B68D5
:10BE200000930F4C0F4A200000F0F2FD0028D0D103
:10BE30000D4B18702B680133CBD0200000F0FAFFB7
:10BE400001220A49200000F015FFC2E70720C0E7E1
:10BE5000EC200020F020002004210020C00502007A
:10BE60004C200020E9BC010000210020142100200A
:10BE700070B50B4C01000B482678FFF7F5FA05006A
:10BE8000002E01D1280070BD002301220649074879
:10BE9000237000F0EFFE0028F4D0FFF7A3FAF1E7DB
:10BEA00000210020F0200020142100204C20002040
:10BEB000F8B50E4D01002800FFF7C4FA041E01D0AA
:10BEC0002000F8BD0A4E300000F0C6FE0028F7D171
:10BED000084F28003900FFF7C7FA0028F0D10122E7
:10BEE0003900300000F03AFE0400E9E704210020A8
:10BEF0004C20002018210020F0B5EFF3108172B61D
:10BF00000A4B5A68002A0DD101248025084E5C6036
:10BF10007459084F3C401C6077510270002900D1D1
:10BF200062B6F0BD01230370F8E7C046C8270020C1
:10BF300000E100E0FC06FFBC10B5084B5A68002A7F
:10BF40000BD0002809D1EFF3108272B604491C68A7
:10BF50000C605860002A00D162B610BDC8270020CE
:10BF600000E100E0002804D0034B5B6E036000207A
:10BF700070470320FCE7C0461C21002070B5161E48
:10BF800007DD0C008D1820780134FFF791FFAC42DB
:10BF9000F9D1300070BDC04610B50C002000FFF78D
:10BFA00067FF0528FAD0012010BDC046A022044B2F
:10BFB000D205D358034A125C0120D34098437047FE
:10BFC00004050000E4050200044BA0211A5C0123D3
:10BFD0009340034AC9058B507047C046E4050200F0
:10BFE0000C050000044BA0211A5C01239340A12200
:10BFF000C905D2008B507047E4050200A022A1239E
:10C000008021D205DB008903D1508021C903D150A2
:10C0100080210904D15080214904D1507047C04685
:10C02000A0228021064BD2058903D1508021C9036B
:10C03000D15080210904D15080214904D15070474A
:10C040000C050000A02210B5074BD205D158074BB4
:10C05000185C012383401C00A1208C430B40044941
:10C06000C0001450535010BD04050000E405020048
:10C070000C050000A02303220B49DB055A500431B4
:10C080005A500A495A5004315A50A1228021D200F4
:10C09000890399508021C90399508021090499503E
:10C0A0008021490499507047540700005C07000044
:10C0B000A022A223D205DB00D358034A125C012040
:10C0C000D34098437047C046E005020011280BD0CA
:10C0D00012280BD013280BD01438434258410423A4
:10C0E00040421840013870470020FCE70120FAE781
:10C0F0000220F8E7014B185C7047C046E0050200DB
:10C1000010B51A4B1A68002A14D0002280211A6038
:10C11000C2220123164CC90592008B506370A3689C
:10C12000002B07D01A6800205B68A2609847A368BC
:10C13000002BF7D10F4B1A68002A15D000221A6085
:10C140008022C22302219B00D205D1500123084C3A
:10C15000A3702369002B07D01A6801205B68226155
:10C1600098472369002BF7D110BDC046000100405D
:10C17000842100200401004010B500280BD1064C9A
:10C18000A368002B07D01A6800205B68A26098475C
:10C19000A368002BF7D110BD8421002030B583B0F7
:10C1A0006B46DD1D002328002B70FFF7A5FE144C05
:10C1B0002378002B09D0E36828780133E36001235A
:10C1C000A370FFF7B9FE03B030BD6360A3602361C5
:10C1D000E3600C4B1B68DB070CD503F075F80028F7
:10C1E00005D18022A3230121D205DB00D1500123F8
:10C1F0002370E0E70321002000F006F8EDE7C046D9
:10C200008421002000E100E0FF22032330B5140068
:10C21000C5B22B40DB009C4089010A40E4439A40B0
:10C22000002814DB104B80089C46C023800060442B
:10C230009B00C1580C402243C2501F23C0211D4007
:10C240001E3BAB40084A49005350136030BD0F23DA
:10C2500006492B408C46083B9B089B006344D969E8
:10C260000C402243DA61E8E700E100E000ED00E085
:10C2700070B54425144C665D002E22D101235B422B
:10C2800023606360A360E36023616361A361E36192
:10C2900023626362A362E36223636363A363E36372
:10C2A000236403210620FFF7AFFF084B80211E60A7
:10C2B000C123074A9B000906D15001230020635582
:10C2C00070BD0820FCE7C046982100207C6100403A
:10C2D000006000404423034AD05C431E9841C0B232
:10C2E0007047C04698210020F0B5CE46474680B53D
:10C2F000584B91461D1820352E7808247F2E3DD9A5
:10C30000CF78002F3FD11A69013200D199E005247E
:10C310000826A5005A5901325AD0621C950094464D
:10C320005A59013200D18AE0A21C9446B24224D26A
:10C3300095005A59013200D181E0E21C9446B24284
:10C340001BD295005A59013200D178E0221D944643
:10C35000B24212D295005A59013200D16FE0651DE8
:10C36000B5420AD2AA009A58013200D16FE00634D1
:10C37000B44202D2DA69013228D0042420000CBC75
:10C3800090469946F0BD1A68012404260132C0D1B6
:10C3900000264A462E701A608A78002A2AD0A024E5
:10C3A000E405A446E025022782006244ED005459CA
:10C3B000BC4354510A78C978002928D19B193C33D1
:10C3C000197892010A431A700024D7E707241C2524
:10C3D0001A18944620229046C444624666B21670EB
:10C3E0004A465A51002FD7D11C193C3420708A7804
:10C3F000002AD4D10200A0254C78C132FF3292002D
:10C40000A400ED0554510A78C9780029D6D0124904
:10C41000B3008C46A2216344C9005C580F4D000252
:10C420002C40F8256D012840C0255C501204AD0257
:10C430005C582A4010432043585000249EE764462D
:10C44000C6E704244A462C701A610426CCE72C0067
:10C45000AD00BDE79821002000600040FFE0FCFF38
:10C460000023F0B52A4C22182032D356032B1FDDAF
:10C47000E3183C331B789B09032B3AD0013B5A1E2F
:10C48000934180225B4252021340802292029446E2
:10C490006344A022D2059446E02280006044D2008A
:10C4A00081581C4C2140815081580B438350F0BD72
:10C4B000D8B20328FBD8184DA227AC460126980015
:10C4C0006044FF00C5593543C55118006546002733
:10C4D0004030800080B247510029E8D0127852B233
:10C4E00092001259002AE2D09E40C1239B00EE50D8
:10C4F000DDE7A022A223D205DB00D2580123C240EF
:10C500001340C02292029446013B1B046344C0E7DF
:10C5100098210020FFFFFCFF00600040A022A22322
:10C52000D205DB00D358C340012018407047C046F5
:10C53000F0B5DE4657464E4645460021E0B5CB4AAB
:10C5400087B0039113680024012B00D148E1C84B48
:10C550001A68012A00D150E1C64B1A68012A00D19D
:10C560005BE1C54B1A68012A0FD0C44B1B68012B35
:10C5700000D15EE1230717D1002C34DB07B03CBCAF
:10C5800090469946A246AB46F0BDC122BC499200F6
:10C59000895808220A42E8D000211960B74B144399
:10C5A0001B68012B00D144E11F239946B54BA227FC
:10C5B000012600259846FF0026420ED04946B04A83
:10C5C000AB009A18D059000A0840D1594246D358B6
:10C5D0008903890F002B00D0984701357600042D80
:10C5E000EAD1002CCADA00230493013B05934133BE
:10C5F0009846C026A34C4346E1564B1C2CD007233B
:10C600000127C9B208000B409F40B043C20805ABE8
:10C610009B5C1F4220D0231820331B7889095BB212
:10C620009B00E3589B46002B00D16CE1032900D10D
:10C630006CE1A025ED05A94683009944E0234D4611
:10C64000DB00EB5803ADAA5C9B039B0F174200D0A5
:10C6500027E1032B00D16DE100274123E1564B1C5C
:10C6600037D007230125C9B20B409D4008002B009D
:10C67000B043C20805ADAD5C2B422AD02518AC46AC
:10C680002025A946CC4465462D7889096DB2AD00B8
:10C6900065590191A946002D00D126E1032900D159
:10C6A00026E18500AA46A025ED05AC46E025ED0073
:10C6B000E244AC465546614669588903890F8C4669
:10C6C00003A98A5C134200D0F2E06346032B00D139
:10C6D00079E14223E1564B1C37D007230125C9B22B
:10C6E0000B409D4008002B00B043C20805ADAD5C77
:10C6F0002B422AD02518AC462025A946CC446546B5
:10C700002D7889096DB2AD0065590191A946002DBA
:10C7100000D101E1032900D101E18500AA46A0254D
:10C72000ED05AC46E025ED00E244AC4655466146D9
:10C7300069588903890F8C4603A98A5C134200D08B
:10C7400084E06346032B00D126E14323E1564B1CD2
:10C7500036D007230125C9B20B409D4008002B00AD
:10C76000B043C20805ADAD5C2B4229D02518AC46BC
:10C770002025A946CC4465462D7889096DB2AD00C7
:10C7800065590191A946002D00D1A0E0032900D1EF
:10C79000A0E08500AA46A025ED05AC46E025ED0009
:10C7A000E244AC465546614669588903890F8C4678
:10C7B00003A98A5C134267D16346032B00D1D2E000
:10C7C000002F00D1DAE6A022A223D205DB00D35845
:10C7D000039A934200D1D1E60393049B05930AE7A1
:10C7E000C120274C800024581C4000D1AFE6204BCC
:10C7F00011601A68012A00D0AEE6C12220499200D9
:10C80000895802220A4200D1A6E600211960194B7C
:10C8100014431A68012A00D0A3E6C12218499200E5
:10C82000895804220A4200D19BE600211443196072
:10C8300097E60022114B1A6080231B061C43A0229E
:10C84000A223D205DB00D358039393E66346022B61
:10C8500000D07AE7019B032B00D1D3E04B46002B9D
:10C8600000D172E70199C8476FE7C04600610040F8
:10C8700004610040086100400C6100407C610040A0
:10C8800000600040982100206346022B98D1019B54
:10C89000032B00D1AEE04B46002B91D00199C84745
:10C8A0008EE7022B00D0D7E6032959D0002751E0AC
:10C8B0006346022B00D00CE7019B032B00D19DE0C7
:10C8C0004B46002B00D104E70199C84701E7032933
:10C8D00000D075E704A98C46944461460978194351
:10C8E0008A46614655460D7053E7032900D0F0E6AD
:10C8F00004A98C4694446146097819438A466146E6
:10C9000055460D70CDE6032900D0A5E604AB9B1873
:10C910001D783D431D708CE6032900D015E704A95E
:10C920008C4694446146097819438A4661465546C7
:10C930000D70F2E60329B9D180229202E0234D4620
:10C94000DB00EF58314D2F404D46EF50EF58174365
:10C95000EF5001275B46002B00D17EE6D8477CE6EE
:10C96000C0229202EAE7019B032B94D180239B0211
:10C970009C46E0235246DB00D258244901370A4046
:10C980005146CA50CA5861460A435146CA504B469E
:10C99000FFB2002B82D116E7019B032B00D05DE78D
:10C9A00080239B029C46E0235246DB00D258174965
:10C9B00001370A405146CA50CA5861460A43514697
:10C9C000FFB2CA504AE7019B032B00D078E78023CF
:10C9D0009B029C46E0235246DB00D2580B490137AC
:10C9E0000A405146CA50CA5861460A435146FFB2EE
:10C9F000CA5065E7C0239B029C46BAE7C0239B024E
:10CA00009C46E7E7C0239B029C46CCE7FFFFFCFF68
:10CA1000F8B5CE46474680B507794A4CFE00F31B71
:10CA20009B00E318DB7E050091460820002B5DD1BA
:10CA30000B685A1C0DD007389840A1220300A02093
:10CA4000D200C005835003220B68C133FF339B0023
:10CA50001A504B685A1C06D0A0200022C133FF3365
:10CA60009B00C0051A5028688A69374BC250087D60
:10CA70004B7D2A680343354813500A682B68944657
:10CA800033484A681A50624632481A500B7D012BCF
:10CA900030D04A46F31B9B00E01842600A69E2501E
:10CAA0004B46002B12D08E22002328685200097FAB
:10CAB0008350286828328350C1232868264A9B0067
:10CAC000C2502B68180B40B2FFF79EFBA023042135
:10CAD0002A68DB00D150002301220020F61BB6009B
:10CAE000A419E3752376A375E276A3760CBC904671
:10CAF0009946F8BD8B685A1C06D0A0200022C1338D
:10CB0000FF339B00C0051A50CB685A1C0ED0012081
:10CB10009840A1220300A020D200C0058350032228
:10CB2000CB68C133FF339B001A50CB688A682868F2
:10CB30009446A122D2008350A2236246DB00C25059
:10CB4000A7E7C046E0210020240500006C05000096
:10CB5000140500000C05000080000200F0B5DE4660
:10CB6000574645464E463A4BE0B59B460479112759
:10CB7000E3001B1B9B005B449D7D002D23D18E2475
:10CB80009D8299609A750379012298460368640032
:10CB90001D51036800279A6043464246DB009A1AFB
:10CBA00092005A449C469368016899460D514D463F
:10CBB000938AED5C938A01339BB29382254BCD50CF
:10CBC0005368002B06D038003CBC90469946A246DC
:10CBD000AB46F0BD8025977D6D001100938A14311E
:10CBE000BB421CD2016802E0938AAB4202D00B59CF
:10CBF000002BF9D0938AAB42EFD000234E460B5165
:10CC0000938AF35C9A465646938A01339BB2938289
:10CC1000104BCE501100938A1431BB42E2D38023D3
:10CC20000A885B009A4211D08E210268490053584D
:10CC3000002BFCD001230027D360634642469B1A99
:10CC40009B005B441E000023B375BCE70F27F4E78D
:10CC5000E02100201C0500000279D3009B1A044A41
:10CC60009B00D318987D431E9841C0B27047C046C0
:10CC7000E0210020F0B5574645464E46DE46E0B579
:10CC800006796B4CF3009D1BAD0065196F6883B08E
:10CC90008A469046002F09D0C22281259200AD001D
:10CCA0009146AC464946624605686A509B1B9B000C
:10CCB000E318DD7D002D0DD01D7E002D30D0002F1E
:10CCC00000D1AFE0C123812102689B008900D150CF
:10CCD00011231DE04246DA7552465D76DA601D7614
:10CCE0000579EB009C465B1B9B00E3189B7E002BA9
:10CCF00000D18BE063465A1B9200A218536801686A
:10CD0000002B1CD0C12381229B009200CA5000231B
:10CD1000180003B03CBC90469946A246AB46F0BD15
:10CD200052461A6142461A7605790168EB009C4624
:10CD300063465A1B9200A2185368002BE2D1A22628
:10CD400076008B51922149008B460E39FF39894676
:10CD5000023184278A46904603687F0001969144F9
:10CD600092445A4601999A58DE595958002E1AD1C0
:10CD7000002942D01C23904600226B43E318DA7549
:10CD800042460323002AC3D10C330029C0D1624696
:10CD9000551BAD006419A27E0368002A44D001220D
:10CDA0001A600023B4E716000E43E3D14A46117817
:10CDB00000290CD1D951A3214246C9005B58537EAA
:10CDC000634600225B1B9B00E318DA75DFE7A321B3
:10CDD0005246DE51C90012785B584146C9688B54EF
:10CDE000534652461B780133DBB2137013784A4620
:10CDF00012789A42E4D90368B3E7002AB1D06346B7
:10CE00005D1BAD006419E175032381E7922201687F
:10CE100052008B5001681C3A8B500368083AFF3A65
:10CE20001A6067E7112373E701225A6000236FE756
:10CE3000E021002010B501790C4ACB005B1A9B0061
:10CE4000D3189B7E002B10D19221046849006350B7
:10CE500004681C39635003680839FF391960007988
:10CE6000C3001B1A9B00D218917610BDE021002050
:10CE7000C12330B5614A9B00D35885B09B055ED570
:10CE800092235B00D158002959D00021D150812133
:10CE9000E533FF338900D150594B997E002901D1E8
:10CEA00001315160022269460A7090215348C9003D
:10CEB0004258425069460392DA7D68460A72DA683F
:10CEC000196801920022DA751A765B6898478E21FC
:10CED0004A4A49005358002B12D0494B9C8A987DEE
:10CEE000844257D300245450002809D06A46107257
:10CEF00014709A689C75196801925B686846984737
:10CF0000A2233E4A5B00D158002916D00021D150FF
:10CF10003B4B997E002901D001211160DA7D002A66
:10CF20000BD0002268460121DA755A7E0170027228
:10CF3000DA68196801925B68984705B030BDC12373
:10CF40002E4A9B00D3585B07C1D584214900535812
:10CF5000002BBCD02A4BD87D002827D15050A321CC
:10CF6000C90052585A7E8242B1D11A7E1968002AED
:10CF70002AD0DA751A69D868DA6000226D465C7EBC
:10CF80001A765A76013201902A702C725B686846D4
:10CF900098479CE700205050998A9868405C998A8D
:10CFA000013189B29982174BD050A9E70020505027
:10CFB000A320C000597E1258D86842545A7ED87DAA
:10CFC0000132D2B25A76CDE79A7E002A02D10120F0
:10CFD0000A4A5060C222812408489200A40084506A
:10CFE00000226C460120DA755A7E20702272DA68BF
:10CFF000684601925B68984769E7C0460020004098
:10D00000E02100201C05000010B50220FFF71AF8EF
:10D0100010BDC046F8B5CE46474680B506000D00A7
:10D02000FFF754F80400032812D8012D14D0002D66
:10D0300022D0022D0CD143001E4C1B18E418657839
:10D04000002D05D01C4B1B68002B01D028009847F1
:10D050000CBC90469946F8BD164F430098461B18E5
:10D06000FD5CFB185B78002B13D143461B19FF189E
:10D07000BA78124B1A55E3E71148FEF7F1FD62004A
:10D080000C4B12199B189D780C4B1B5DAB42DFD1EA
:10D09000D6E70C4B0A4899460B4B4A461B68990049
:10D0A000C9184900FEF77AFD0028DED14B461E70F4
:10D0B000DBE7C046442200207822002080220020A6
:10D0C00024220020FC2100202022002070B5764B75
:10D0D0001B68DB0700D470BD744E754D33782C7817
:10D0E000002B05D1172CF6D8724AA300D3589F46BF
:10D0F00000233370FEF782FFF4E701230120337031
:10D10000FEF7A0FF6C4B00221B686C489900C91801
:10D11000FEF744FDDFE7012301203370FEF792FFA5
:10D12000654B002219686548FEF738FDD3E7FEF726
:10D1300077FF2C70CFE7FEF773FF0C232B70CAE745
:10D140005F4D2800FEF78CFD11231C1B00D18DE0E4
:10D15000002800D08AE0012C0BD0C8306421604345
:10D1600002F050F9544B0022196841432800FEF7A1
:10D1700015FD0220FEF728FFADE7FEF73FFF122363
:10D180002B70A8E7FEF73AFF0020FEF71DFF1323E0
:10D190002B70A0E7FEF732FF0120FEF715FF1423E6
:10D1A0002B7098E7FEF72AFF0020FEF70DFF012005
:10D1B000FEF70AFF15232B708DE70020FEF704FF12
:10D1C00007232B7087E70020FEF7F0FE002857D0DA
:10D1D0000020FEF707FF05232B70374B002219684C
:10D1E00036484900FEF7DAFC75E70020FEF72AFF13
:10D1F00006232B7094E7FEF701FF00232B706AE7EC
:10D200000020FEF7D3FE002843D00020FEF7EAFE00
:10D21000A11E4B1E99414B42162119401231264B3B
:10D2200000221B68254859432C70FEF7B7FC52E7D3
:10D230000020FEF7BBFE00281CD00020FEF7D2FE27
:10D240000822032309E00020FEF7B0FE00281BD0CF
:10D250000020FEF7C7FE282204232B70164B174828
:10D26000196851430022FEF799FC34E70220FEF7CB
:10D27000B9FE30E70020FEF7A7FE02220323ECE709
:10D280000020FEF7A1FEA6E70020FEF79DFE042287
:10D29000E2E70020FEF798FEA11E4B1E99414B428B
:10D2A000022119400231BAE7502200205422002006
:10D2B0007C220020E80502002022002058220020C5
:10D2C0000022002010B50078FEF700FF03280BD8DD
:10D2D00043001B180548C0184078002804D0044BB0
:10D2E0001B68002B00D0984710BDC0464422002088
:10D2F0007822002010B5FEF7DBFE10BD70B5864B1E
:10D3000005001B680024DB0701D4200070BD834E9C
:10D310003378002B06D1172D00D9FAE0804AAB00F4
:10D32000D3589F463470FEF769FEF4E701230120CD
:10D330003370FEF787FE7B4B00221B687A4899000A
:10D34000C918FEF72BFC0400DFE70123012033702E
:10D35000FEF778FE734B002219687348FEF71EFC37
:10D360000400D2E70020FEF72FFE07226F4B0024B7
:10D370001A70CAE70020FEF719FE002800D1AFE0BE
:10D380000020FEF72FFE0522684B67481A70654B98
:10D39000002219684900FEF701FC0400B5E70020EF
:10D3A000FEF750FE0622614B1A70D3E7FEF726FE09
:10D3B00000225E4B00241A70A7E70020FEF7F6FD5E
:10D3C000002800D195E00020FEF70CFEA91E4B1EA0
:10D3D00099414B42162119401231544B00221D70C5
:10D3E000504B51481B685943FEF7D8FB04008CE7AB
:10D3F0000020FEF7DBFD002800D185E00020FEF7CD
:10D40000F1FD08200322494B1A70464B002219688F
:10D4100041434548FEF7C2FB040076E70020FEF7D3
:10D42000C5FD002860D00020FEF7DCFD28203F4B22
:10D430000422E9E7FEF7E2FD0020FEF7C5FD01202A
:10D44000FEF7C2FD1522394B00241A705DE7384EF5
:10D450003000FEF705FC04001120451B3CD0002CD9
:10D460003AD1012D0CD0B7306421684301F0CAFFD6
:10D470002C4B0022196841433000FEF78FFB04005B
:10D480000220FEF7A1FD40E7FEF7B8FD1222274B70
:10D4900000241A7039E7FEF7B1FD0020FEF794FD75
:10D4A0001322224B00241A702FE7FEF7A7FD01205C
:10D4B000FEF78AFD14221D4B00241A7025E7FEF7A3
:10D4C000AFFD1A4B00241D701FE7FEF7A9FD0C22CB
:10D4D000164B00241A7018E70220FEF783FD14E7AC
:10D4E0000020FEF771FD4EE70020FEF76DFD0420E1
:10D4F0009DE70020FEF768FDA91E4B1E99414B4297
:10D5000002211940023168E70020FEF75DFD02208C
:10D5100078E70024F9E6C04650220020542200207B
:10D520004806020020220020582200207C220020F1
:10D530000022002070B50125204B05401960204BCA
:10D540001860204B1A60830713D50E221E4B1F480C
:10D550001A700132DA7001329A7101325A724A0835
:10D560000421FDF7CFFE041E16D0002D20D120008F
:10D5700070BD002D0DD1164A00211648FEF7F8FAAD
:10D58000041EF4D1144A01211448FEF7F1FA0400F4
:10D59000EDE7FEF76FFDEEE7FDF70CFF041EE4D1AB
:10D5A0000F4A00210F48FEF7E3FA0400002D01D0D6
:10D5B000FEF760FD002CDAD1DDE7C0462022002016
:10D5C000502200207822002044220020A8060200D9
:10D5D000CDD00100D006020009D00100C80602002B
:10D5E000C5D20100CC060200032807D8012A07D0C3
:10D5F00001290BD0002916D002290DD00720704731
:10D6000000220129F4D102000E32D2B243001818D0
:10D61000084BC2540020F2E743001B180548C0180D
:10D6200042700020EBE743001B180248C0188270CC
:10D630000020E4E74422002010B5FEF75BFDA023A4
:10D64000DB059C46E02380006044DB00C2580549AE
:10D650000A40C250C022C15892020A43C250002060
:10D6600010BDC046FFFFFCFF10B50020FFF7E4FF30
:10D67000002802D0062800D010BD0120FFF7DCFFF3
:10D680000028F9D0831F5A1E93415B421840F3E7EC
:10D6900010B50388102B08D0112B05D1294A136827
:10D6A000013B1360002B07D010BD264C2368002BD4
:10D6B00011D001332360F7E7012202210020FFF798
:10D6C00093FF00282BD0072829D01F4B1B68002B65
:10D6D000EAD09847E8E7012200210020FFF784FF05
:10D6E000002808D0072806D0174B1B68002B00D055
:10D6F00098472368DDE7072202210120FFF774FF26
:10D70000002801D00728EFD1042202210020FFF7D2
:10D710006BFF0028EDD00728E6D12368C9E7072270
:10D7200002210120FFF760FF002801D00728CCD19B
:10D730000A2200210020FFF757FF0028B4D0072855
:10D74000C3D1B1E788220020842200201D4B10B5F0
:10D750000C1E186006D00120FFF7CCFD002823D056
:10D7600002232370184B1B68002B01D0002010BD32
:10D77000012202210020FFF737FF002801D00728EF
:10D78000F5D1072202210120FFF72EFF002801D04A
:10D790000728ECD10A2200210020FFF725FF0028EE
:10D7A000E4D00728E3D1E1E70020FFF7A3FD00283C
:10D7B00005D1054B20701B68002BD7D1D8E70B2370
:10D7C0002370CFE7842200208822002076DF704774
:10D7D0007ADF70477CDF70477FDF7047A8DF7047D4
:10D7E000A9DF704767DF70473CDF704748DF70474D
:10D7F00010B5FDF7F7FD10BD10B5040084B001F0C1
:10D8000079FA2100374801F0A9FB2388132B5FD058
:10D810000FD9512B46D030D9522B24D0552B0ED1B5
:10D82000A0881321FFF7D2FF002808D0FDF7DAFD0A
:10D8300005E0102B24D0112B09D0022B2BD0200077
:10D8400001F0FAF82000FFF723FF04B010BD00201C
:10D85000FFF754FD002801D0FDF7C4FD0122224B43
:10D8600052421A80EBE7204B002218880021002347
:10D87000FFF7B6FF0028E2D0D8E73A2BD0D0DEE79A
:10D880000720FFF73BFD002801D0FDF7ABFDA28884
:10D89000154B1A80D3E7A0880021FFF7A3FF0028CB
:10D8A000CDD0C3E7A379002BC9D0A27B043A022ACA
:10D8B000C5D8022B00D001236A461370C1235B0038
:10D8C0009380A0886946FFF789FF0028B7D0ADE7AD
:10D8D000054B0022188885210023FFF77DFF0028D3
:10D8E000ADD0A3E7642300205820002070B5002AA3
:10D8F00009D00C008D182078FEF7DAFA0028FAD14A
:10D900000134AC42F7D10D20FEF7D2FA0028FAD14B
:10D910000A20FEF7CDFA0028FAD170BD10B50378C1
:10D92000002B00D010BD054B3B211888FFF74EFFA0
:10D930000028F7D0FDF756FDF4E7C0465820002038
:10D9400010B507281ED00A280ED0042800D010BD1C
:10D95000134B13211888FFF739FF082302009A435D
:10D96000F5D0FDF73FFDF2E70020FFF7C7FC0028E8
:10D9700013D1FFF779FE00280CD1FFF735FF0028FF
:10D98000E5D0EEE7064B1A88064B9A42DFD101F04C
:10D99000B3F8E2E7FDF726FDEFE7FDF723FDE8E743
:10D9A00058200020FFFF000070B50378012B03D042
:10D9B000002B05D0022B02D14068FDF713FD70BD8E
:10D9C0000F4C104D20782818FEF752FA22780132B9
:10D9D000D2B2AB18013B1B7822700A2B01D0132A5C
:10D9E000EDD992B22900084801F0C8FB08230200D3
:10D9F0009A4302D100232370E1E7FDF7F3FCF9E736
:10DA0000602300204C2300206423002010B5002850
:10DA100007D0032804D10138FFF770FC00280DD18E
:10DA200010BD0020FFF76AFC00280AD1FFF71CFE9A
:10DA300000280CD1FFF7D8FE0028F1D0FDF7D2FC6A
:10DA4000EEE7FDF7CFFCFFF70FFE0028F2D0FDF761
:10DA5000C9FCEFE7F0B50023ABB06F4A0521002009
:10DA6000FDF7F4FF002801D0FDF7BCFC6B4E1BACAA
:10DA70002300320023CA23C323CA23C3684B694A45
:10DA80000C9380230CAD5B006B60AA60EB60664A70
:10DA9000FD3B29002000FEF78DF9002801D0FDF79D
:10DAA000A1FC624A62490320FFF744FD002801D02F
:10DAB000FDF798FC21000020FFF748FE002801D068
:10DAC000FDF790FCB369482203930C935949002356
:10DAD000280001F0FFFB002801D0FDF783FC2200A5
:10DAE0000121002001F068FC002801D0FDF77AFC3C
:10DAF000200001F079FC002801D0FDF773FC4E48AE
:10DB000001F038FC002801D0FDF76CFC11234B4ECE
:10DB10002B70300001F010FE310082B22800FFF7B8
:10DB200059FE002801D0FDF75DFC082200212000ED
:10DB3000FDF760FB424B20001B93C8235B041C9342
:10DB4000FFF746FE002801D0FDF74CFC002104221F
:10DB50002000FDF74FFB3B4B21003B481B9301F09E
:10DB60002FFA002801D0FDF73DFC3C2200212800BF
:10DB7000FDF740FB022300272B703C2203330021DA
:10DB80002000EB70AF70FDF735FB012304AE23825C
:10DB90002E4B2022002130006361FDF72BFB012377
:10DBA000F370402333617433736132000097284B64
:10DBB0002100280000F048FE002801D0FDF712FCEB
:10DBC0001C2200212000FDF715FBA02292026260BA
:10DBD000F02200231203A26003221B93E38123742B
:10DBE0001C4B200063611C4B2273A36101F046F8BB
:10DBF000002801D0FDF7F6FB184801F083FD032053
:10DC000000F0FAFE002803D1FFF7F0FD0028FBD05A
:10DC1000FDF7E8FBF8E7C0468C220020D40602009E
:10DC20008023002080240020A9D9010041D90100CF
:10DC3000CD0C000004230020F9D70100F0060200FB
:10DC400010003C00EDD80100642300205420002087
:10DC50000DDA01001DD90100F1D70100FC06020018
:10DC600071DF704772DF704779DF70477DDF704783
:10DC700065DF7047F0B5DE4657464E464546E0B58F
:10DC800087B09B4610AB914604CB07001B880291DE
:10DC900001931388904603930388002B68D00023D8
:10DCA0009A4604AB0024DD1C03E03B880134A34208
:10DCB0002EDD7B68A1009C460422614405A801F08A
:10DCC00017FD0022290005A8FFF7D2FF061E2CD160
:10DCD0002B784B45E9D1434651461A884B469B1851
:10DCE00000292AD00199994240DB5A44290005A80D
:10DCF000FFF7BEFF002837D142462B781288013447
:10DD00009B184246138001239A463B88A342D0DCED
:10DD10005346002B2CD043461B88039A013B9B1A89
:10DD20009BB2FF2B22D859468B54300007B03CBC25
:10DD300090469946A246AB46F0BD019902339942FE
:10DD400014DB4346013292B21A805B46029905A861
:10DD5000995443461A882900013292B21A805A44D3
:10DD6000FFF786FF0028C7D00600DEE70C26DCE7B9
:10DD70000026DAE7F0B557464E464546DE46002314
:10DD8000E0B5178813802D331400C25C85B0050000
:10DD90000E000023002A00D0C3E0AA78002A00D099
:10DDA000C9E0E978002914D0DA1CBA4200D9BAE0F7
:10DDB0000222F2542388013A01339BB22380F254A9
:10DDC000238801339BB22380F154238801339BB213
:10DDD00023806A68002A15D0D91CB94200D9A2E074
:10DDE00002211278F1542388083101339BB2238039
:10DDF000F154238852B201339BB22380F25423881A
:10DE0000013323802B89002B00D0E2E02B8A002BEA
:10DE100000D0F7E02B8B002B00D00DE12B6A002BFC
:10DE200042D02088821DBA4200D97CE01A889046F0
:10DE3000052A00D8CBE0B44AB449424492B289469C
:10DE40008A4200D8C3E05A88052A00D8BFE0AE490C
:10DE50008C469444614689B2494500D8B7E0AC4944
:10DE6000884504D08A4202D0904500D9AFE005220F
:10DE7000122132542288013292B22280B154228877
:10DE8000013292B222801988B2181170090A5170B9
:10DE90002288023292B222805988B2181170090A7F
:10DEA00051702388023323806B6A9846002B2ED052
:10DEB0009A882088911C831C5B18BB4233D8FE29AA
:10DEC00031D803323254FF22238801339BB223809E
:10DED000F2544246238801339BB223801288F31800
:10DEE0001A70120A5A7043462088023080B220808D
:10DEF0009A88002A0BD09968002900D167E0301871
:10DF000001F0F6FB4246238892889B1823802C233D
:10DF1000EB5C002B00D0A9E02B78002B53D1002024
:10DF200002E0082F28D80C2005B03CBC904699464A
:10DF3000A246AB46F0BD04330C20BB42F4D802A885
:10DF4000FFF792FE0028EFD103222388F2542388A2
:10DF5000163201339BB22380F2546A462388128919
:10DF600001339BB22380F3181A70120A5A70238867
:10DF700002339BB2238014E702A8FFF771FE00284A
:10DF8000D2D10822092123886944F254238813320C
:10DF900001339BB22380F2542088153A013080B2BD
:10DFA0002080301801F0A4FB6A462388127A0633D9
:10DFB0009BB22380002A00D0DBE0F2542388013397
:10DFC0009BB22380E9E62A88012A00D0A2E007203C
:10DFD000AAE708239846A844019700943300022238
:10DFE00002214046FFF746FE00289DD1019700948C
:10DFF0003300102206214046FFF73CFE002800D1E6
:10E0000004E791E710239846A84401970094330051
:10E01000022203214046FFF72DFE002800D083E7AF
:10E02000019700943300102207214046FFF722FE9B
:10E03000002800D1EEE677E718239846A844019718
:10E0400000943300022214214046FFF713FE0028FB
:10E0500000D069E701970094330010221521404653
:10E06000FFF708FE002800D1D8E65DE7AB6A9846C6
:10E07000002BACD09B880233FE2B00D953E7002243
:10E080009146163292461632934620885246013304
:10E090003354238801339BB22380F25442462388B1
:10E0A00001339BB223801288F3181A70120A5A7037
:10E0B00043462088023080B220809A88002A0CD003
:10E0C0009968002900D182E7301801F011FB43461E
:10E0D00020889B88C01880B220804B460133DBB279
:10E0E00099465B46EB5C4B4500D815E74B46AA6A60
:10E0F0005B0090464B449B00984443469B88023308
:10E10000FE2BC3D90FE7C0467FF3FFFF7DF300006E
:10E11000FFFF00002288901CB84200D903E7012BC2
:10E1200005D16B7802339B189F4200D2FBE66B4609
:10E13000023FBF1ABFB2301802A91F81FFF796FD38
:10E14000002800D0F0E62B78022B1AD0012B12D039
:10E150000822FE2F00D9E6E62388791CF154238893
:10E1600001339BB22380F25423880133FF182780A8
:10E17000DAE6012221E76B789F42E9D31F000822EB
:10E18000E7E76B461B899F42E2D31F000922E0E7C5
:10E19000F0B557464546DE464E46E0B595B01F23DE
:10E1A0006A4604000F0003ADD381002825D0C17852
:10E1B0004B072AD500232B802D33C35C002B00D0C6
:10E1C00037E18378002B39D10322002300209046C9
:10E1D00004AE02223254581C02339BB280B2013A80
:10E1E0003254F15443469BB22B806268002A59D0C6
:10E1F000D91C1F2946D90C2008E000262880002FB2
:10E2000000D111E1FB78002B07D0072015B03CBCF2
:10E2100090469946A246AB46F0BD0E336B441A00B9
:10E220000CA93800FFF7A6FD0028EFD16B469B7BB9
:10E230000CAA29783000FFF715FDE7E70CAB9846EC
:10E240004046FFF711FD0028E0D1032219212B8859
:10E2500004AEF2545A1C92B2B154424611889A1C30
:10E2600092B2B2181170090A517004339BB2E1786E
:10E270002B800029B9D0DA1C180090461F2AA8D993
:10E280000C20C3E71278298052B291460222F25440
:10E290005A1C92B290460A22404632544A460233F1
:10E2A0009BB2F2542389002B00D0F3E0238A002B89
:10E2B00000D057E1238B002B00D070E1236A002BA4
:10E2C0003DD02A88911D8A461F2900D993E71888D6
:10E2D00005289AD9CB498C468444614689B28C463C
:10E2E000C94988468C4500D88FE759888C4605294E
:10E2F00000D88AE7C349614489B2414500D884E720
:10E30000C249884204D08C4502D0604500D97CE7E0
:10E3100005201221B054501C80B23154901C80B2A0
:10E320002880198830180170090A417004325B880E
:10E3300092B2B21813701B0A537053462B80636A53
:10E340009846002B2ED09B882A88981C9946931CAF
:10E35000C1181F2900D94EE7FE2800D94BE74946CE
:10E36000FF200331B154511C89B2705441462B80B7
:10E370001B0409881B0CF3181970090A59704346CD
:10E38000043290B228809A88002A0BD0996800291C
:10E3900000D13AE7301801F0ABF942462B88928859
:10E3A0009B182B802C23E15C002900D08FE0237880
:10E3B000002B00D123E72288012A00D125E72A88F3
:10E3C000901C1F2800D916E7012B04D163781B1875
:10E3D0001F2B00D90FE71D239A1A93B299464A467C
:10E3E0000CAB3018190098461A80FFF73FFC002844
:10E3F00000D00BE72378022B00D1F2E0012B00D1F3
:10E40000F7E043464A4608211A804B46FE2B00D9C6
:10E41000F1E64A462B880132F2545A1C023392B27A
:10E420004B44B1542B80EAE66B460022DF81002387
:10E43000FFE60CAB18009846FFF712FC002800D04E
:10E44000E4E608221B212B8804AEF2545A1C92B237
:10E45000023398B2B154163128800622694430182C
:10E4600001F046F941462B8809789A1D92B22A801C
:10E47000002900D0B2E0B21811700733A2789BB225
:10E480002B80002A00D1A7E004330C201F2B00D9D9
:10E49000BCE6D5E6082398461733A0449946019375
:10E4A00000953300022202214046FFF7E3FB0028DB
:10E4B00000D0ABE64B4600950193102233000621B5
:10E4C0004046FFF7D7FB002800D1EFE69EE6A36A9F
:10E4D0009846002B00D198E69B880233FE2B00D98A
:10E4E00089E60022914616329246163228889346D3
:10E4F0000CE04B46A26A5B0090464B449B0098445C
:10E5000043469B880233FE2B00D974E65246013302
:10E510003354431C9BB2F2544246831C9BB22B8063
:10E520001288F3181A70120A5A704346043080B2E7
:10E5300028809A88002A0ED09968002900D164E6C4
:10E54000301801F0D5F8434628889B88C0185B46F0
:10E5500080B2E15C28804B460133DBB299468B42A6
:10E56000C7D324E7102398460F33A044994601935C
:10E5700000953300022203214046FFF77BFB002871
:10E5800000D043E64B46009501931022330007214B
:10E590004046FFF76FFB002800D18BE636E61823D4
:10E5A00098460733A0449946019300953300022210
:10E5B00014214046FFF75EFB002800D026E64B46BC
:10E5C000009501931022330015214046FFF752FBBE
:10E5D000002800D172E619E6E1784AE60121B1543B
:10E5E0004BE743461B88994500D20AE79946092123
:10E5F0000BE76378994500D203E7424699461380BA
:10E60000082102E77FF3FFFF7DF30000FFFF00001A
:10E6100073DF704774DF7047F0B57F4C072287B017
:10E62000060000212000FCF7E5FD7C4D7C4B2A68AC
:10E630007C4F1A4202D03B78012B38D0AB78002BAC
:10E6400032D16378002B64D1A378002B61D1E378B9
:10E65000002B5ED12379002B5BD16379002B58D13D
:10E66000A3795A1E9341DBB2022E55D0022E29D92E
:10E67000032E2ED0042E02D12B79002B53D100264D
:10E680003E700022684B1A70182200216846FCF781
:10E69000B1FD00236A46137013723B78042B28D80F
:10E6A000624A9B00D3589F463B78022BC9D1604BEE
:10E6B000604A1B68002B00D1ACE0012108201170DA
:10E6C0009847BEE7012EDAD16A78002A24D0002BC1
:10E6D000D6D1EB78002BCFD0032325E00222564B76
:10E6E00001941A706A4601231370EB685382AB6879
:10E6F00013826846FFF78CFF002808D14C4B1B683B
:10E70000002B00D182E04C4A10789847002007B0D7
:10E71000F0BD0123022EA9D1AA78002AD9D0002B5E
:10E72000D7D00226ACE704233B70414B1B68002B7B
:10E73000A7D02A78002AA4D0404A1278002AA0D173
:10E740000121394A0720117098479DE76A462B69D5
:10E7500013826B6953822B78002B4FD0374B1B7879
:10E76000002B4BD1364B1A79002A02D11A7B002A92
:10E7700044D003936A4602233248137200210233C5
:10E78000C370FFF705FD002842D105222A4B1A70FD
:10E790003B7826E00022284B1A70AFE76A46AB6947
:10E7A0001382EB6953822B78002B2BD0234B1B78E1
:10E7B000002B27D1224B1A79002A02D11A7B002A7A
:10E7C00020D003936A4602231E48137200210233AD
:10E7D000C370FFF7DDFC00281AD10622164B1A7011
:10E7E0003B78002B00D189E783E70123124A01948B
:10E7F00013706A461370002304937AE703220E4BCA
:10E800001A7076E704220C4B1A7072E700207EE73C
:10E810003B78E6E7137014E760260020842500208B
:10E8200000FFFF0081250020502700200C07020078
:10E83000E82500205C2600208025002051270020AC
:10E840005C200020A4250020F8B504000E0000285C
:10E8500000D1AEE0002A00D1ABE00120564908709B
:10E8600000205649087056480100A1CAA1C1A1CA9A
:10E87000A1C121CA21C1534A00211360524B069AFB
:10E8800052481A600122524B52421A800832FCF759
:10E89000B1FC504D00213C222800FCF7ABFC237852
:10E8A00022002B70A3781032AB70E378EB706378A2
:10E8B0006B702B00103303CA03C32B00103A0833CC
:10E8C00003CA03C32B000832183303CA03C3636AA5
:10E8D000002B11D0404B414F6B62616A9F600A88E8
:10E8E0001A8088889880002806D000238A68D25C25
:10E8F000FA5401339842F9D8A36A002B14D0384B4C
:10E90000384FAB62A16A9F60888898800A881A8015
:10E91000002806D000238A68D25CFA54013383426F
:10E92000F9D32C23E25CEA54236A002B06D02E4B49
:10E930002B62226A5188598012881A806368002BE2
:10E9400000D06B6029492A4B0A68D81D13600A68F9
:10E95000506018000E30906018001530D06018001C
:10E960001C30106118002330506118003133D3611E
:10E97000204B2A30906118008A68103013608A6832
:10E98000506018008A68203090608A681900303121
:10E99000D1601900403111611900503151611900E5
:10E9A000703360319161D36131002800FFF7F0FBD3
:10E9B000F8BD0E20FCE7C046EC2500208125002094
:10E9C00084250020E8250020E42500206026002082
:10E9D000E2250020A425002010260020F02500209C
:10E9E0006826002074260020942600205C20002049
:10E9F00098260020D026002010B50C4B04001B7870
:10EA000082B00820002B0BD0094B01A81C70FDF729
:10EA1000A9FA019B002B05D001220020054B1A709A
:10EA200002B010BD2000FFF7F7FDF9E7EC2500204C
:10EA300081250020E025002030B5038883B0112B0C
:10EA400025D01B2B0AD0102B01D003B030BD837D05
:10EA5000012BFAD18288224B1A80F6E7037A002B29
:10EA6000F3D1204B1B78002B2CD01F4D052128788B
:10EA7000013000F037FE01A8CCB22C70FDF772FA1D
:10EA8000019B002B25D00122184B1A70DDE70021D5
:10EA9000174A83881170124A12889A42D5D1114BB5
:10EAA0001B78002B0ED001220F4B01A81A70FDF726
:10EAB00059FA019B002BE6D10120FFF7ADFD00289C
:10EAC00001D1C2E708200B4B1B68002BBDD0984733
:10EAD000BBE72000FFF7A0FD0028F4D1B5E7C04652
:10EAE000E2250020EC25002081250020E0250020E3
:10EAF00051270020E425002070B5012582B0FFF7E2
:10EB000089FD144B14481D7006230021C370FFF7C4
:10EB10003FFB041E02D0200002B070BD0F4B1B78DB
:10EB2000002B0AD00E4B01A81E78FDF71BFA019BA3
:10EB3000002B09D00B4B1D70EDE708200A4B1B681A
:10EB4000002BE8D09847E6E73000FFF765FD002886
:10EB5000F4D1E0E751270020A4250020EC25002077
:10EB600081250020E0250020E425002075DF704786
:10EB700076DF70477ADF70477BDF704710B5184B40
:10EB800082B01888174B984214D0174A174C137844
:10EB90000133DBB21370217B99420DD20023137035
:10EBA000237C002B12D16369002B03D0002201A823
:10EBB0000270984702B010BD0D49FFF7D7FF00283B
:10EBC000F8D0A369002BF5D09847F3E73B21FFF776
:10EBD000CFFF0028E7D0A369002BE4D09847E2E7F5
:10EBE00054270020FFFF0000A42700205827002002
:10EBF0009C27002030B51B4B1B4A5B88118883B0D3
:10EC000099420CD852889A4209D3184B5B69002B61
:10EC100003D0012201A802709847154C0BE0144C58
:10EC20002378002B0BD0114B5B69002B03D0002203
:10EC300001A8027098470023237003B030BD0D4B2C
:10EC40000A4D1B78002B0BD0A96800220A48FCF75C
:10EC5000A5FF0028EFD0AB69002BECD09847EAE77E
:10EC60006968F2E7942700209C270020582700209D
:10EC700052270020A42700207427002016490200F4
:10EC80000B0070B532CA32C332CA32C312681A607E
:10EC90000022124B01681A70002916D0104C08325D
:10ECA000200000F025FD2000FFF764FF00280BD1B5
:10ECB00001220C4B52421A8000220B4B00211A7089
:10ECC0000A480B4AFCF754FF70BD0548FFF754FF94
:10ECD0000028EDD0F8E7C046582700205227002032
:10ECE0009C27002054270020A42700202007020092
:10ECF0007DEB010030B5038883B0112B37D023D9C9
:10ED0000122B08D0502B04D13B4CC288E3899A4285
:10ED10004CD003B030BD394B08301A0012C812C2B3
:10ED2000374A5B881188994233D9364C2378002BB7
:10ED30004ED0314B5B69002B03D0002201A802703A
:10ED4000984700232370E4E7102BE2D182882E4BF2
:10ED500018301A80294B06C806C300222B4B1A70A4
:10ED6000254BDB89002BD4D1FFF744FFD1E70122EB
:10ED7000254B52421A800022244B25481A70FCF77A
:10ED80006FFF0028C5D01C4B9B69002BC1D0984752
:10ED9000BFE752889A42C8D3174B5B69002B03D058
:10EDA000012201A802709847164CCAE7038A022B79
:10EDB000AFD1123000F02EF80028D5D11448FCF75E
:10EDC0004FFF0028A5D0A369002BA2D09847A0E749
:10EDD0000E4B094D1B78002B0BD0A96800220C4864
:10EDE000FCF7DCFE0028ACD0AB69002BA9D098471B
:10EDF000A7E76968F2E7C04658270020942700205B
:10EE00009C2700205227002054270020A427002000
:10EE100074270020012300781840704703210A4816
:10EE200002680A430260094802680A43026008490E
:10EE3000084A094B9B1A03DD043BC858D050FBDC41
:10EE400000F012F8FCF760F924050040540500407A
:10EE5000D4070200E81F002078200020FEE7FEE72C
:10EE6000FEE7FEE7FEE7FEE72E4B1B78012B00D006
:10EE700070472D4B1B681B07FAD1F0222B4B1B68E8
:10EE8000134027D12A4B1B6813422BD0264B1B68FB
:10EE90001B07EDD1F022254B1B681340402B2DD0D2
:10EEA000F022224B1B681340A02B01D0D02BDFD1C6
:10EEB000F0231F4A12681A42DAD11E4A1368012B46
:10EEC00004D01D4B13601368012BFCD1C0221B4BD7
:10EED0001A60CDE7102B01D0302BDBD1144B1B680F
:10EEE0001342D7D1164B174A1A608022164B1202D2
:10EEF0001A600C4B1B78012BC8D0B9E70C4B1B6870
:10EF00001342CDD18022C1230121DB00D205D15093
:10EF1000044B1B78012BABD1034B1B681B07BFD0E5
:10EF2000A6E7C046E00F00F0E40F00F0E80F00F0A5
:10EF3000EC0F00F000EC06407593000014EC064066
:10EF400004050040DFFF07C0186C0040A0DF7047D9
:10EF5000A2DF7047A6DF704763DF704710B5041E5D
:10EF600008D0002906D00B88112B04D0502B09D0D3
:10EF7000102B04D010BD01235B428382FAE78B88FB
:10EF80008382F7E7CB88028A9A420AD0A2889A4203
:10EF9000F0D1A369002BEDD00A8A200012319847E6
:10EFA000E8E70A8A022AF1D112310800FFF732FF9E
:10EFB000002802D00123A375DCE7A075DAE7C0467C
:10EFC000F0B557464E464546DE46E0B595B00400DE
:10EFD00004A80200674BE0CBE0C21B681360002C62
:10EFE00000D1C5E0002900D1C2E001235B42A38229
:10EFF0000B682100A3610023A375FFF7ADFF071E77
:10F0000007D0380015B03CBC90469946A246AB46A6
:10F01000F0BD237802A98B700123A21C0120994620
:10F020000B80FFF793FF071EEBD1032200216846F8
:10F03000FCF7E0F802216A4688464F4B41461380B0
:10F040009378062293430B4369460DAD8B701632BD
:10F0500000212800FCF7CEF810218B4659462B786A
:10F0600001AE0B432B706B4669466B61237803221C
:10F070008B73032330008B8100216F60EF602F6161
:10F08000AF61FCF7B7F801239A465B4651460B4344
:10F0900033705B4606220B437370B37808A8934322
:10F0A0004246134308229343083293430B431422EE
:10F0B0000021B370FCF79EF803AB08934B46142273
:10F0C0000A936B469A85230060880C3308AA2900AE
:10F0D0000996FFF73DFF071E93D11C22002128004F
:10F0E000FCF788F808222B780021134304221343ED
:10F0F0006A462B7023783000937302239381032296
:10F100006F60EF602F616F61AF61FCF773F80F22E2
:10F110005146337808A893430B43594613400B4399
:10F1200051463370737893430B4313405A4613434D
:10F1300006227370B37893434246134308229343E5
:10F14000083293430B4314220021B370FCF752F8AA
:10F1500003AB08934B4614220A936B469A8560884A
:10F16000231D08AA29000996FFF7F2FE070048E7C9
:10F170000E2746E7240702001111000070B586B083
:10F180006B4604000E00DA80002821D0828A114BE1
:10F190009A421BD0837D002B18D06B46DB8807205A
:10F1A000142B11D802AD002110222800FCF722F800
:10F1B000A389A08A2B806B460633AB60012329000C
:10F1C000EE60AB70FFF7C6FE06B070BD0820FBE72F
:10F1D0000E20F9E7FFFF000052DF704710DF704795
:10F1E00060DF704761DF704710B5FCF70BF910BDA9
:10F1F000F0B557464E464546DE46E0B52D4B2E4E01
:10F200001D6899466B425D412C4B2D4F98462D4B06
:10F2100083B09A46EDB23478E4B2002C26D101A82E
:10F22000FFF7DAFF052835D0002826D0FCF7DAF8FA
:10F23000002D2DD13578EDB2002D17D143466A4609
:10F240001B8801A993803B6818009B46FFF7CAFF03
:10F25000052823D0002824D14B4658461B689847E0
:10F26000002CD8D033780124002BE7D003B03CBC6D
:10F2700090469946A246AB46F0BD0198FCF77CFF4C
:10F2800053461B68002B11D001989847002DD1D010
:10F290000125C0E7002DE9D10124CBE7002CF7D0F0
:10F2A000E4E7FCF79FF8002CDCD1B4E7002DC1D0D7
:10F2B0000125B0E7A8270020B1270020A6270020BD
:10F2C000B8270020B4270020014B1878C0B270473F
:10F2D000B027002070B5002930D0032421422DD161
:10F2E00001261C4D29601C491C4D0A801C4A1360D4
:10F2F0002B681E4208D080231A49EE50FFF76EFF9C
:10F30000002806D02E6070BD1649FFF767FF002861
:10F31000F9D1154B1E70FCF741FFC5239B00EB583C
:10F320009B0D1C40E30712D5104B5A68002A07D1E9
:10F3300080220A4BD2031A600020E4E70720E2E7AC
:10F3400080221968D2030A431A600020DBE70848CC
:10F35000D9E7C046B8270020A627002000E100E03A
:10F36000AC270020E9F10100B0270020C8270020C9
:10F3700002200000002803D0024B186000207047D4
:10F380000E20FCE7A827002010B5094B1B68002BB6
:10F3900006D09847002800D110BDFCF723F8FBE702
:10F3A000044B1B78002BF7D0FFF722FFF4E7C04691
:10F3B000AC270020B027002070B5140005000E0017
:10F3C000142200212000FBF715FF002301222361F6
:10F3D000237B22809343237326726572002D01D014
:10F3E0000123A372002070BD00B5054B83B00193CB
:10F3F000019B69460093FFF7F3FE019B03B000BD3C
:10F40000E81F0020002243088B4274D303098B427B
:10F410005FD3030A8B4244D3030B8B4228D3030CE4
:10F420008B420DD3FF22090212BA030C8B4202D386
:10F430001212090265D0030B8B4219D300E0090AAE
:10F44000C30B8B4201D3CB03C01A5241830B8B42B7
:10F4500001D38B03C01A5241430B8B4201D34B03A0
:10F46000C01A5241030B8B4201D30B03C01A524105
:10F47000C30A8B4201D3CB02C01A5241830A8B428A
:10F4800001D38B02C01A5241430A8B4201D34B0273
:10F49000C01A5241030A8B4201D30B02C01A5241D7
:10F4A000CDD2C3098B4201D3CB01C01A524183098B
:10F4B0008B4201D38B01C01A524143098B4201D3C5
:10F4C0004B01C01A524103098B4201D30B01C01AF0
:10F4D0005241C3088B4201D3CB00C01A524183086A
:10F4E0008B4201D38B00C01A524143088B4201D397
:10F4F0004B00C01A5241411A00D2014652411046F7
:10F500007047FFE701B5002000F0F0F802BDC046EB
:10F510000029F7D076E7704703460B437FD40022DB
:10F5200043088B4274D303098B425FD3030A8B4297
:10F5300044D3030B8B4228D3030C8B420DD3FF2201
:10F54000090212BA030C8B4202D31212090265D0CF
:10F55000030B8B4219D300E0090AC30B8B4201D382
:10F56000CB03C01A5241830B8B4201D38B03C01AC9
:10F570005241430B8B4201D34B03C01A5241030B40
:10F580008B4201D30B03C01A5241C30A8B4201D3F1
:10F59000CB02C01A5241830A8B4201D38B02C01A9C
:10F5A0005241430A8B4201D34B02C01A5241030A13
:10F5B0008B4201D30B02C01A5241CDD2C3098B42F8
:10F5C00001D3CB01C01A524183098B4201D38B0175
:10F5D000C01A524143098B4201D34B01C01A524118
:10F5E00003098B4201D30B01C01A5241C3088B425D
:10F5F00001D3CB00C01A524183088B4201D38B0048
:10F60000C01A524143088B4201D34B00C01A5241E9
:10F61000411A00D201465241104670475DE0CA0FC0
:10F6200000D04942031000D34042534000229C4680
:10F6300003098B422DD3030A8B4212D3FC2289018A
:10F6400012BA030A8B420CD3890192118B4208D360
:10F65000890192118B4204D389013AD0921100E0C2
:10F660008909C3098B4201D3CB01C01A52418309D6
:10F670008B4201D38B01C01A524143098B4201D303
:10F680004B01C01A524103098B4201D30B01C01A2E
:10F690005241C3088B4201D3CB00C01A52418308A8
:10F6A0008B4201D38B00C01A5241D9D243088B42FE
:10F6B00001D34B00C01A5241411A00D201466346A1
:10F6C00052415B10104601D34042002B00D5494205
:10F6D000704763465B1000D3404201B5002000F044
:10F6E00005F802BD0029F8D016E770477047C046FC
:10F6F000002310B59A4200D110BDCC5CC454013334
:10F70000F8E700000FB40B4B13B51C68002C05D0B4
:10F71000A369002B02D1200000F058F805AB049A31
:10F72000A1682000019300F06BF916BC08BC04B07E
:10F730001847C046E81F00200023C25C0133002A9E
:10F74000FBD1581E70470000002310B50400036071
:10F750004360836081814366C28103614361836149
:10F76000190008225C30FBF745FD054B24626362FB
:10F77000044BA362044BE362044B236310BDC046F9
:10F780003DFF010065FF01009DFF0100C9FF010071
:10F7900010B5024900F08CF810BDC046CD02020041
:10F7A00070B568254A1E55430E002900743100F0DB
:10F7B000A1F8041E08D000212A00016046600C3028
:10F7C000A0606832FBF716FD200070BD836913B599
:10F7D0000400002B28D18364C3640365134B144ACF
:10F7E0001B6882620193984201D10123836120004A
:10F7F00000F020F86060200000F01CF8A0602000FD
:10F8000000F018F80022E06004216068FFF79CFF18
:10F8100001220921A068FFF797FF02221221E06868
:10F82000FFF792FF0123A36113BDC046B805020094
:10F8300091F70100F8B51C4B07001E68B369002B57
:10F8400002D13000FFF7C2FF4836B4687368013B4D
:10F8500004D53368002B07D03668F6E70C22A55E86
:10F86000002D0DD06834F2E704213800FFF798FF2F
:10F8700030600028F0D10C2304003B602000F8BD6C
:10F8800020000A4B656625606560A560E360256120
:10F890006561A561082229005C30FBF7ABFC65635C
:10F8A000A563A564E564E9E7B80502000100FFFF70
:10F8B000F7B504000700002601914834002C01D15F
:10F8C0003000FEBD6368A5680093009B013B009378
:10F8D00001D52468F2E7AB89012B08D90E22AB5E73
:10F8E000013304D029003800019B9847064368354E
:10F8F000EBE70000032370B5CD1C9D4308350600DF
:10F900000C2D1ED20C25A9421DD8300000F095FD0B
:10F91000254A14682100002919D1244C2368002BA2
:10F9200003D1300000F0F8FA20602900300000F028
:10F93000F3FA431C2BD10C233000336000F07EFD22
:10F9400003E0002DDFDA0C233360002070BD0B686C
:10F950005B1B19D40B2B03D90B60CC18256003E07B
:10F960004B688C420DD11360300000F067FD200021
:10F9700007220B30231D9043C31AE7D05A42E250AE
:10F98000E4E763600C00EFE70C004968C3E703237A
:10F99000C41C9C43A042E1D0211A300000F0BCFA04
:10F9A000431CDBD1C7E7C046BC270020C02700208E
:10F9B000936810B5013B9360002B04DA9469A3426D
:10F9C00007DB0A2905D01368581C1060197008005D
:10F9D00010BD00F0FFFA0100F9E7F8B506000F00CE
:10F9E0001400D518AC4201D1002007E021783A007C
:10F9F0003000FFF7DDFF0134431CF3D1F8BD0000F8
:10FA0000F0B5A1B003900F0016001D00002805D02E
:10FA100083690593002B01D1FFF7D8FE7B4B9F42F2
:10FA20005CD1039B5F68BB891B0763D53B69002BD7
:10FA300060D0002308AC6361203363761033A37673
:10FA4000079535002B78002B01D0252B5CD1AB1B03
:10FA500005930CD0320039000398FFF7BEFF431C1A
:10FA600000D1C4E06269059B9446634463612B78CE
:10FA7000002B00D1BBE0012200235242626004A9A6
:10FA8000543252186E1C2360E360A3601370A365A8
:10FA9000317805225E4800F0C5FC751C002835D180
:10FAA0002268D30604D5532304A95B1820211970BA
:10FAB000130704D5532304A95B182B21197033783D
:10FAC0002A2B2CD0350000210A20E3682A786E1CEE
:10FAD000303A092A64D900292ED026E04D4B9F42A6
:10FAE00002D1039B9F689EE74B4B9F429BD1039B98
:10FAF000DF6898E73900039800F0D6FA002898D01C
:10FB00000120404221B0F0BD01359BE7404B226807
:10FB1000C01A01238340134323602E00B8E7079BDC
:10FB2000191D1B680791002B01DB0B9304E05B425E
:10FB3000E3600223134323602B782E2B0AD16B78CA
:10FB40002A2B35D1079B02351A1D1B680792002B03
:10FB50002BDB0993314E29780322300000F062FC40
:10FB6000002806D04023801B8340226801351343C0
:10FB70002360297806222A486E1C217600F052FC68
:10FB800000283AD0274B002B25D10722079B0733AB
:10FB90009343083307936369049A9B18636150E7A2
:10FBA000434301219B18350090E701235B42D0E7D6
:10FBB00000230A201A000135636029786E1C303951
:10FBC000092903D9002BC5D00992C3E74243012379
:10FBD00052183500F1E707AB00933A00124B2100B1
:10FBE000039800E000BF0490049B0133D3D1BB898C
:10FBF0005B0600D584E70D9884E707AB00933A00D5
:10FC0000094B2100039800F07FF8ECE7540702004D
:10FC10009407020074070200340702009A070200EA
:10FC20009E07020000000000DBF90100F7B5150097
:10FC300001938A680B6900900C00934200DA13006C
:10FC400022002B6043321278002A01D001332B604E
:10FC500023689B0602D52B6802332B600627236896
:10FC60001F4027D0230043331B785A1E934122683C
:10FC7000920630D42200019943320098089EB04782
:10FC8000431C25D0062320682A68E168034000252C
:10FC9000042B03D18D1AEB43DB171D40A3682269A7
:10FCA000934201DD9B1AED180027BD4220D10020B0
:10FCB00010E00137E3682A689B1ABB42D2DD2200BC
:10FCC0000123193201990098089EB047431CF0D1D6
:10FCD00001204042FEBD3020E11843310870210070
:10FCE0005A1C45310978A218433202331170C1E71A
:10FCF000220001231A3201990098089EB047431C44
:10FD0000E6D00137D1E70000F0B589B004920A00CF
:10FD100043320593039002920A7E0C000E9B6E2ADA
:10FD200000D186E01FD8632A33D008D8002A00D13A
:10FD30008CE0582A4DD0250042352A7030E0642AE4
:10FD400001D0692AF7D1196825680A1D280629D526
:10FD500008681A60002803DA2D23029A40421370C3
:10FD60006B4E0A274FE0732A74D008D86F2A1FD031
:10FD7000702AE0D1202209680A43226003E0752A34
:10FD800016D0782AD7D12200782145321170614EE1
:10FD900022E025001A684235111D196013682B7086
:10FDA000012365E008681A606906D3D500B2D1E77F
:10FDB00019682568081D186008682E0605D5544E78
:10FDC00008276F2A1BD00A2719E06D06F7D580B2E5
:10FDD000F5E745314E4E0A7018682268011D00682B
:10FDE0001960150621D5D30702D520231A432260B6
:10FDF0001027002803D1202322689A432260230081
:10FE0000002243331A706368A360002B58DB04227E
:10FE1000216891432160002854D1029D002B5AD0C3
:10FE20002500337842352B7055E05506DBD580B27E
:10FE3000D9E71A680D68101D4969186013682E0605
:10FE400001D5196002E06D06FBD519800023029DE3
:10FE500023614FE01A68111D19601568002162685E
:10FE6000280000F0DFFA002801D0401B60606368C2
:10FE700023610023029A13703CE023692A0004994D
:10FE80000398059DA847431C3ED023689B0715D4C3
:10FE9000079BE068984239DA180037E02200012316
:10FEA000193204990398059EB047431C2CD00135A4
:10FEB000E368079A9B1AAB42F0DCE9E70025F7E715
:10FEC0000028ADD0029D3900FFF722FB735C013D95
:10FED0002B700028F7D1082F09D12368DB0706D53E
:10FEE00063682269934202DC3023013D2B70029B40
:10FEF0005B1B2361059B07AA00932100049B0398C9
:10FF0000FFF794FE431CB8D10120404209B0F0BD78
:10FF1000A5070200B6070200002370B5064C0500D5
:10FF20000800236000F02EFB431C03D12368002B44
:10FF300000D02B6070BDC046D027002070B50C00EB
:10FF40000E25495F00F0C6FA002803DB636D1B181D
:10FF5000636570BDA389024A1340A381F9E7C046D7
:10FF6000FFEFFFFFF8B51F008B8905000C0016009E
:10FF7000DB0505D50E23C95E0022022300F0D2F96D
:10FF8000A389054A28001340A38132000E23E15EB5
:10FF90003B0000F075F8F8BDFFEFFFFF70B50C00F7
:10FFA0000E25495F00F0BEF9A389421C03D1054A22
:10FFB0001340A38170BD802252011343A381606569
:10FFC000F8E7C046FFEFFFFF10B50E23C95E00F053
:10FFD000E1F810BDF8B505000E001400002804D0AB
:10FFE0008369002B01D1FFF7F1FB224B9C422DD1FD
:10FFF0006C68A369A360A3891B0731D52369002B13
:020000022000DC
:100000002ED023682269F7B2981A6369F6B2834248
:1000100005DC2100280000F059F9002826D1A3684A
:100020000130013BA36023685A1C22601F70636982
:10003000834204D0A389DB071AD50A2E18D12100E8
:10004000280000F043F9002812D00FE00A4B9C4230
:1000500001D1AC68CDE7094B9C42CAD1EC68C8E736
:100060002100280000F020F80028CAD0012676429E
:100070003000F8BD54070200740702003407020084
:1000800070B50500080011000022064C22601A001D
:10009000FBF774FF431C03D12368002B00D02B60B7
:1000A00070BDC046D0270020364B70B51D680600D5
:1000B0000C00002D05D0AB69002B02D12800FFF702
:1000C00085FB314B9C420FD16C680C23E25E93B2EE
:1000D00019072DD4D90611D40923012033603733F1
:1000E0001343A381404270BD284B9C4201D1AC68B0
:1000F000EBE7274B9C42E8D1EC68E6E75B0713D5BA
:10010000616B002908D023004433994202D03000AB
:1001100000F096F9002363632422A3899343A3810B
:1001200000236360236923600823A2891343A3810A
:100130002369002B0BD1A0218022A3898900920082
:100140000B40934203D02100300000F027F9012337
:10015000A289134011D00023A36063695B42A361AD
:10016000002023698342BED10C23E25E1306BAD578
:1001700040231343A3810138B5E7920700D4636994
:10018000A360EDE7E81F0020540702007407020097
:1001900034070200002370B5064C050008002360F8
:1001A00000F0D0F9431C03D12368002B00D02B6052
:1001B00070BDC046D0270020F7B58A8905000C0025
:1001C000130760D44B68002B04DC0B6C002B01DCA4
:1001D0000020FEBDE76A002FFAD000232E682B60B6
:1001E00080235B01216A1A4034D0606DA3895B07CC
:1001F00006D56368C01A636B002B01D0236CC01A4C
:100200000200216A00232800E76AB847A189431C3D
:1002100006D12B681D2B30D82B4ADA40D3072CD5BA
:100220000023636023692360CB0405D5431C02D1FE
:100230002B68002B00D16065616B2E600029C7D050
:1002400023004433994202D0280000F0F9F800203E
:100250006063BEE701232800B847431CC6D12B6862
:10026000002BC3D01D2B01D0162B01D12E60AFE780
:100270004023A2891343A381ABE740230B43012012
:10028000A3814042A5E70F69002FA1D00B680F6042
:10029000DB1B01930023920700D14B69A360019BF4
:1002A000002B00DC94E7019B3A00216A2800A66A33
:1002B000B047002803DC4023A2891343DFE7019BFA
:1002C0003F181B1A0193EAE7010040200B6970B543
:1002D00005000C00002B01D1002070BD002804D0C7
:1002E0008369002B01D1FFF771FA0B4B9C4209D1B6
:1002F0006C680C22A35E002BEED021002800FFF7D3
:100300005BFFEAE7054B9C4201D1AC68F1E7044B87
:100310009C42EED1EC68ECE754070200740702003F
:100320003407020070B50500080011000022064CD9
:1003300022601A0000F01EF9431C03D12368002B31
:1003400000D02B6070BDC046D027002070B50E00D5
:100350001D000E23C95E96B01400002907DA0023A1
:100360002B60B3891B0611D48023DB000FE06A46A3
:1003700000F0C4F80028F2DBF022019B12021340C7
:10038000054A9B185A4253412B60EDE74023002059
:10039000236016B070BDC04600E0FFFFF7B502262F
:1003A0008B8905000C00334206D0230047332360BD
:1003B000236101236361F7BD01AB6A46FFF7C6FF06
:1003C000009907002800FFF795FA002808D10C22B1
:1003D000A35E9A05EFD4032293431E43A681E4E76C
:1003E0000F4BAB628023A28920601343A381009B43
:1003F00020616361019B002B0DD00E23E15E28007C
:1004000000F08EF8002806D00322A38993431A0037
:1004100001231343A381A0893843A081CBE7C046C1
:1004200091F70100C9B28218904201D100207047B3
:1004300003788B42FBD00130F6E77047704700002D
:1004400070B50500002910D00C1F2368002B00DABE
:10045000E4182800FFF7F1FF1D4A1368002B05D1AF
:10046000636014602800FFF7E9FF70BDA34209D95B
:10047000216860188342F3D118685B6841182160D5
:10048000EEE713005A68002A01D0A242F9D9196890
:100490005818A0420BD120680918581819608242D8
:1004A000E0D110685268411819605A60DAE7A0423A
:1004B00002D90C232B60D5E721686018824203D152
:1004C000106852684118216062605C60CAE7C046EB
:1004D000BC27002070B50500080011000022064C62
:1004E00022601A00FBF758FD431C03D12368002B40
:1004F00000D02B6070BDC046D0270020002370B50F
:10050000064C050008001100236000F023F8431C8E
:1005100003D12368002B00D02B6070BDD0270020B2
:10052000002370B5064C05000800236000F01AF89F
:10053000431C03D12368002B00D02B6070BDC04644
:10054000D027002058220120014B40421A607047FA
:10055000D027002058220120014B40421A607047EA
:10056000D02700205822024B00201A607047C04656
:10057000D027002058220120014B40421A607047CA
:10058000D0270020044A1368002B00D1034B181811
:10059000106018007047C046C4270020D8270020EC
:1005A000F8B5C046F8BC08BC9E467047F8B5C046D2
:1005B000F8BC08BC9E467047EC1F00209C20002021
:1005C000FFFFFFFFFFFFFFFFFFFFFFFFFFFFFFFF3B
:1005D000000000000000000000E0D7010300000060
:1005E0001112131415161718F6D1010000D20100CC
:1005F00000D2010030D2010046D20100C6D1010074
:10060000EAD10100BAD1010016D10100FAD00100EF
:1006100016D10100FAD0010036D1010040D101000D
:1006200040D1010040D1010040D1010040D1010082
:100630007AD1010084D1010094D10100A4D101003C
:100640002ED101002ED10100ACD30100BAD301009C
:10065000BAD30100F0D301001CD4010074D301000F
:100660009ED3010064D301004AD301002CD30100C2
:100670004AD301002CD30100CAD401004ED401009A
:100680004ED401004ED401004ED401004ED40100DE
:1006900088D4010096D40100AAD4010034D401000A
:1006A000BED40100BED401001100030015D001002A
:1006B0001200030015D001001300030015D0010043
:1006C0001400030015D00100002200202422002085
:1006D000582200200B000000090000000800000064
:1006E0000A0000000000000000E0D7010100000740
:1006F0004E6F726469635F55415254000D0A554153
:100700005254205374617274210D0A0094E7010061
:10071000EAE70100DCE601004CE701009CE701008C
:10072000742700209ECADC240EE5A9E093F3A3B54C
:100730000000406E0000000000000000000000000B
:1007400000000000000000000000000000000000A9
:100750000000000000000000000000000000000099
:100760000000000000000000000000000000000089
:100770000000000000000000000000000000000079
:100780000000000000000000000000000000000069
:1007900000000000232D302B2000686C4C006566A3
:1007A00067454647003031323334353637383941C2
:1007B00042434445460030313233343536373839D8
:0C07C000616263646566000000000000D8
:0807CC003CA9FF7F01000000C1
:1007D400EC1F002000000000540702007407020010
:1007E40034070200000000000000000000000000C8
:1007F40000000000000000000000000000000000F5
:1008040000000000000000000000000000000000E4
:1008140000000000000000000000000000000000D4
:1008240000000000000000000000000000000000C4
:100834000000000000200040000000000100020051
:10084400FFFF00001C260020000000003C260020C2
:10085400000000000024F400E9B00100C1B0010070
:040000031000EE1DDE
:00000001FF
